{
  "_format": "hh-sol-artifact-1",
  "contractName": "Bridge",
  "sourceName": "contracts/Bridge.sol",
  "abi": [
    {
      "inputs": [],
      "stateMutability": "nonpayable",
      "type": "constructor"
    },
    {
      "inputs": [],
      "name": "Bridge__FundsCannotBeZero",
      "type": "error"
    },
    {
      "inputs": [],
      "name": "Bridge__InsufficientBalance",
      "type": "error"
    },
    {
      "inputs": [],
      "name": "Bridge__NotAllowedToDoThisAction",
      "type": "error"
    },
    {
      "inputs": [],
      "name": "Bridge__TokenNameEmpty",
      "type": "error"
    },
    {
      "inputs": [],
      "name": "Bridge__TokenSymbolEmpty",
      "type": "error"
    },
    {
      "inputs": [],
      "name": "Bridge__WrapTokenDoesNotExist",
      "type": "error"
    },
    {
      "inputs": [],
      "name": "Bridge__ZeroAddressProvided",
      "type": "error"
    },
    {
      "anonymous": false,
      "inputs": [
        {
          "indexed": true,
          "internalType": "address",
          "name": "user",
          "type": "address"
        },
        {
          "indexed": false,
          "internalType": "address",
          "name": "tokenAddress",
          "type": "address"
        },
        {
          "indexed": false,
          "internalType": "uint256",
          "name": "amount",
          "type": "uint256"
        },
        {
          "indexed": true,
          "internalType": "uint256",
          "name": "chainId",
          "type": "uint256"
        },
        {
          "indexed": false,
          "internalType": "uint256",
          "name": "timestamp",
          "type": "uint256"
        }
      ],
      "name": "BurnedToken",
      "type": "event"
    },
    {
      "anonymous": false,
      "inputs": [
        {
          "indexed": true,
          "internalType": "bytes32",
          "name": "role",
          "type": "bytes32"
        },
        {
          "indexed": true,
          "internalType": "bytes32",
          "name": "previousAdminRole",
          "type": "bytes32"
        },
        {
          "indexed": true,
          "internalType": "bytes32",
          "name": "newAdminRole",
          "type": "bytes32"
        }
      ],
      "name": "RoleAdminChanged",
      "type": "event"
    },
    {
      "anonymous": false,
      "inputs": [
        {
          "indexed": true,
          "internalType": "bytes32",
          "name": "role",
          "type": "bytes32"
        },
        {
          "indexed": true,
          "internalType": "address",
          "name": "account",
          "type": "address"
        },
        {
          "indexed": true,
          "internalType": "address",
          "name": "sender",
          "type": "address"
        }
      ],
      "name": "RoleGranted",
      "type": "event"
    },
    {
      "anonymous": false,
      "inputs": [
        {
          "indexed": true,
          "internalType": "bytes32",
          "name": "role",
          "type": "bytes32"
        },
        {
          "indexed": true,
          "internalType": "address",
          "name": "account",
          "type": "address"
        },
        {
          "indexed": true,
          "internalType": "address",
          "name": "sender",
          "type": "address"
        }
      ],
      "name": "RoleRevoked",
      "type": "event"
    },
    {
      "anonymous": false,
      "inputs": [
        {
          "indexed": true,
          "internalType": "address",
          "name": "user",
          "type": "address"
        },
        {
          "indexed": false,
          "internalType": "address",
          "name": "tokenAddress",
          "type": "address"
        },
        {
          "indexed": false,
          "internalType": "uint256",
          "name": "amount",
          "type": "uint256"
        },
        {
          "indexed": true,
          "internalType": "uint256",
          "name": "chainId",
          "type": "uint256"
        },
        {
          "indexed": false,
          "internalType": "uint256",
          "name": "timestamp",
          "type": "uint256"
        },
        {
          "indexed": true,
          "internalType": "string",
          "name": "tokenSymbol",
          "type": "string"
        },
        {
          "indexed": false,
          "internalType": "string",
          "name": "tokenName",
          "type": "string"
        }
      ],
      "name": "TransferCompleted",
      "type": "event"
    },
    {
      "anonymous": false,
      "inputs": [
        {
          "indexed": true,
          "internalType": "address",
          "name": "user",
          "type": "address"
        },
        {
          "indexed": true,
          "internalType": "address",
          "name": "tokenAddress",
          "type": "address"
        },
        {
          "indexed": false,
          "internalType": "uint256",
          "name": "sourceChainId",
          "type": "uint256"
        },
        {
          "indexed": false,
          "internalType": "uint256",
          "name": "amount",
          "type": "uint256"
        },
        {
          "indexed": false,
          "internalType": "uint256",
          "name": "fee",
          "type": "uint256"
        },
        {
          "indexed": false,
          "internalType": "uint256",
          "name": "timestamp",
          "type": "uint256"
        },
        {
          "indexed": true,
          "internalType": "uint256",
          "name": "targetChainId",
          "type": "uint256"
        }
      ],
      "name": "TransferInitiated",
      "type": "event"
    },
    {
      "anonymous": false,
      "inputs": [
        {
          "indexed": true,
          "internalType": "address",
          "name": "user",
          "type": "address"
        },
        {
          "indexed": false,
          "internalType": "address",
          "name": "nativeTokenAddress",
          "type": "address"
        },
        {
          "indexed": false,
          "internalType": "uint256",
          "name": "amount",
          "type": "uint256"
        },
        {
          "indexed": true,
          "internalType": "uint256",
          "name": "chainId",
          "type": "uint256"
        },
        {
          "indexed": false,
          "internalType": "uint256",
          "name": "timestamp",
          "type": "uint256"
        }
      ],
      "name": "UnWrappedToken",
      "type": "event"
    },
    {
      "inputs": [],
      "name": "DEFAULT_ADMIN_ROLE",
      "outputs": [
        {
          "internalType": "bytes32",
          "name": "",
          "type": "bytes32"
        }
      ],
      "stateMutability": "view",
      "type": "function"
    },
    {
      "inputs": [],
      "name": "RELAYER",
      "outputs": [
        {
          "internalType": "bytes32",
          "name": "",
          "type": "bytes32"
        }
      ],
      "stateMutability": "view",
      "type": "function"
    },
    {
      "inputs": [
        {
          "internalType": "string",
          "name": "_symbol",
          "type": "string"
        },
        {
          "internalType": "uint256",
          "name": "_amount",
          "type": "uint256"
        },
        {
          "internalType": "address",
          "name": "_user",
          "type": "address"
        }
      ],
      "name": "burnWrappedToken",
      "outputs": [],
      "stateMutability": "nonpayable",
      "type": "function"
    },
    {
      "inputs": [
        {
          "internalType": "string",
          "name": "_symbol",
          "type": "string"
        },
        {
          "internalType": "uint256",
          "name": "_amount",
          "type": "uint256"
        },
        {
          "internalType": "address",
          "name": "_user",
          "type": "address"
        },
        {
          "internalType": "uint256",
          "name": "_deadline",
          "type": "uint256"
        },
        {
          "internalType": "uint8",
          "name": "_v",
          "type": "uint8"
        },
        {
          "internalType": "bytes32",
          "name": "_r",
          "type": "bytes32"
        },
        {
          "internalType": "bytes32",
          "name": "_s",
          "type": "bytes32"
        }
      ],
      "name": "burnWrappedTokenWithPermit",
      "outputs": [],
      "stateMutability": "nonpayable",
      "type": "function"
    },
    {
      "inputs": [],
      "name": "factory",
      "outputs": [
        {
          "internalType": "contract WERC20Factory",
          "name": "",
          "type": "address"
        }
      ],
      "stateMutability": "view",
      "type": "function"
    },
    {
      "inputs": [],
      "name": "fee",
      "outputs": [
        {
          "internalType": "uint256",
          "name": "",
          "type": "uint256"
        }
      ],
      "stateMutability": "view",
      "type": "function"
    },
    {
      "inputs": [
        {
          "internalType": "bytes32",
          "name": "role",
          "type": "bytes32"
        }
      ],
      "name": "getRoleAdmin",
      "outputs": [
        {
          "internalType": "bytes32",
          "name": "",
          "type": "bytes32"
        }
      ],
      "stateMutability": "view",
      "type": "function"
    },
    {
      "inputs": [
        {
          "internalType": "bytes32",
          "name": "role",
          "type": "bytes32"
        },
        {
          "internalType": "address",
          "name": "account",
          "type": "address"
        }
      ],
      "name": "grantRole",
      "outputs": [],
      "stateMutability": "nonpayable",
      "type": "function"
    },
    {
      "inputs": [
        {
          "internalType": "bytes32",
          "name": "role",
          "type": "bytes32"
        },
        {
          "internalType": "address",
          "name": "account",
          "type": "address"
        }
      ],
      "name": "hasRole",
      "outputs": [
        {
          "internalType": "bool",
          "name": "",
          "type": "bool"
        }
      ],
      "stateMutability": "view",
      "type": "function"
    },
    {
      "inputs": [
        {
          "internalType": "address",
          "name": "_user",
          "type": "address"
        },
        {
          "internalType": "address",
          "name": "_tokenAddress",
          "type": "address"
        },
        {
          "internalType": "uint256",
          "name": "_targetChainId",
          "type": "uint256"
        },
        {
          "internalType": "uint256",
          "name": "_amount",
          "type": "uint256"
        }
      ],
      "name": "initiateTransfer",
      "outputs": [],
      "stateMutability": "nonpayable",
      "type": "function"
    },
    {
      "inputs": [
        {
          "internalType": "address",
          "name": "_user",
          "type": "address"
        },
        {
          "internalType": "address",
          "name": "_tokenAddress",
          "type": "address"
        },
        {
          "internalType": "uint256",
          "name": "_targetChainId",
          "type": "uint256"
        },
        {
          "internalType": "uint256",
          "name": "_amount",
          "type": "uint256"
        },
        {
          "internalType": "uint256",
          "name": "_deadline",
          "type": "uint256"
        },
        {
          "internalType": "uint8",
          "name": "_v",
          "type": "uint8"
        },
        {
          "internalType": "bytes32",
          "name": "_r",
          "type": "bytes32"
        },
        {
          "internalType": "bytes32",
          "name": "_s",
          "type": "bytes32"
        }
      ],
      "name": "initiateTransferWithPermit",
      "outputs": [],
      "stateMutability": "nonpayable",
      "type": "function"
    },
    {
      "inputs": [
        {
          "internalType": "string",
          "name": "_symbol",
          "type": "string"
        },
        {
          "internalType": "string",
          "name": "_tokenName",
          "type": "string"
        },
        {
          "internalType": "address",
          "name": "_to",
          "type": "address"
        },
        {
          "internalType": "address",
          "name": "_tokenAddress",
          "type": "address"
        },
        {
          "internalType": "uint256",
          "name": "_amount",
          "type": "uint256"
        }
      ],
      "name": "mintToken",
      "outputs": [],
      "stateMutability": "nonpayable",
      "type": "function"
    },
    {
      "inputs": [
        {
          "internalType": "bytes32",
          "name": "role",
          "type": "bytes32"
        },
        {
          "internalType": "address",
          "name": "account",
          "type": "address"
        }
      ],
      "name": "renounceRole",
      "outputs": [],
      "stateMutability": "nonpayable",
      "type": "function"
    },
    {
      "inputs": [
        {
          "internalType": "bytes32",
          "name": "role",
          "type": "bytes32"
        },
        {
          "internalType": "address",
          "name": "account",
          "type": "address"
        }
      ],
      "name": "revokeRole",
      "outputs": [],
      "stateMutability": "nonpayable",
      "type": "function"
    },
    {
      "inputs": [
        {
          "internalType": "uint256",
          "name": "_fee",
          "type": "uint256"
        }
      ],
      "name": "setFee",
      "outputs": [],
      "stateMutability": "nonpayable",
      "type": "function"
    },
    {
      "inputs": [
        {
          "internalType": "bytes4",
          "name": "interfaceId",
          "type": "bytes4"
        }
      ],
      "name": "supportsInterface",
      "outputs": [
        {
          "internalType": "bool",
          "name": "",
          "type": "bool"
        }
      ],
      "stateMutability": "view",
      "type": "function"
    },
    {
      "inputs": [
        {
          "internalType": "address",
          "name": "_to",
          "type": "address"
        },
        {
          "internalType": "address",
          "name": "_nativeTokenAddress",
          "type": "address"
        },
        {
          "internalType": "uint256",
          "name": "_amount",
          "type": "uint256"
        }
      ],
      "name": "unWrapToken",
      "outputs": [],
      "stateMutability": "nonpayable",
      "type": "function"
    },
    {
      "inputs": [
        {
          "internalType": "address",
          "name": "",
          "type": "address"
        }
      ],
      "name": "wrappedToNative",
      "outputs": [
        {
          "internalType": "address",
          "name": "",
          "type": "address"
        }
      ],
      "stateMutability": "view",
      "type": "function"
    }
  ],
  "bytecode": "0x608060405266038d7ea4c680006002553480156200001c57600080fd5b506200002a6000336200007c565b60405162000038906200011d565b604051809103906000f08015801562000055573d6000803e3d6000fd5b50600180546001600160a01b0319166001600160a01b03929092169190911790556200012b565b6000828152602081815260408083206001600160a01b038516845290915290205460ff1662000119576000828152602081815260408083206001600160a01b03851684529091529020805460ff19166001179055620000d83390565b6001600160a01b0316816001600160a01b0316837f2f8788117e7eff1d82e926ec794901d17c78024a50270940304540a733656f0d60405160405180910390a45b5050565b6128d88062001d9883390190565b611c5d806200013b6000396000f3fe608060405234801561001057600080fd5b50600436106101165760003560e01c8063a217fddf116100a2578063c45a015511610071578063c45a0155146102a2578063d547741f146102b5578063d5afd6f6146102c8578063ddca3f43146102db578063e4f7e720146102e457600080fd5b8063a217fddf14610233578063a5e83bcb1461023b578063b85399961461027c578063c0499d9a1461028f57600080fd5b806336568abe116100e957806336568abe146101b057806369fe0e2d146101c357806391d14854146101d657806399472c331461020d5780639d5777f91461022057600080fd5b806301ffc9a71461011b5780632483e71514610143578063248a9ca3146101785780632f2ff15d1461019b575b600080fd5b61012e6101293660046115aa565b6102f7565b60405190151581526020015b60405180910390f35b61016a7fab4f864e5201b0fde9b5ee3e4cf96384802b0ffdfcf7f9de4699ce21a30afc4f81565b60405190815260200161013a565b61016a6101863660046115d4565b60009081526020819052604090206001015490565b6101ae6101a9366004611602565b61032e565b005b6101ae6101be366004611602565b610358565b6101ae6101d13660046115d4565b6103e9565b61012e6101e4366004611602565b6000918252602082815260408084206001600160a01b0393909316845291905290205460ff1690565b6101ae61021b366004611632565b61043d565b6101ae61022e36600461171b565b61059c565b61016a600081565b610264610249366004611776565b6003602052600090815260409020546001600160a01b031681565b6040516001600160a01b03909116815260200161013a565b6101ae61028a3660046117a9565b610845565b6101ae61029d366004611821565b610a2e565b600154610264906001600160a01b031681565b6101ae6102c3366004611602565b610bba565b6101ae6102d6366004611862565b610bdf565b61016a60025481565b6101ae6102f23660046118e9565b610eaa565b60006001600160e01b03198216637965db0b60e01b148061032857506301ffc9a760e01b6001600160e01b03198316145b92915050565b60008281526020819052604090206001015461034981611252565b610353838361125f565b505050565b6001600160a01b03811633146103db5760405162461bcd60e51b815260206004820152602f60248201527f416363657373436f6e74726f6c3a2063616e206f6e6c792072656e6f756e636560448201527f20726f6c657320666f722073656c66000000000000000000000000000000000060648201526084015b60405180910390fd5b6103e582826112fd565b5050565b3360009081527fad3228b676f7d3cd4284a5443f17f1962b36e491b30a40b2405849e597ba5fb5602052604090205460ff1661043857604051633e78b92160e01b815260040160405180910390fd5b600255565b836001600160a01b03811661046557604051634f0ff8a560e11b815260040160405180910390fd5b836001600160a01b03811661048d57604051634f0ff8a560e11b815260040160405180910390fd5b82806000036104af5760405163eb9365e760e01b815260040160405180910390fd5b6040516323b872dd60e01b81526001600160a01b038881166004830152306024830152604482018690528716906323b872dd906064016020604051808303816000875af1158015610504573d6000803e3d6000fd5b505050506040513d601f19601f82011682018060405250810190610528919061197a565b5042866001600160a01b0316886001600160a01b03167f7c640dc4b99abc9030f33ecd8184a0d9422bd4919dc19090f82cae7ab4bb90bb46898960025460405161058b949392919093845260208401929092526040830152606082015260800190565b60405180910390a450505050505050565b81806000036105be5760405163eb9365e760e01b815260040160405180910390fd5b816001600160a01b0381166105e657604051634f0ff8a560e11b815260040160405180910390fd5b604080516020808201909252600090528551908601207f3a2db9fe7908dcc36d81824d2338fc3f1aff49ac357dd8c4840527fba27a5b900161063b576040516329ed017b60e11b815260040160405180910390fd5b6001546040516318c04bbb60e01b81526000916001600160a01b0316906318c04bbb9061066c9089906004016119ec565b602060405180830381865afa158015610689573d6000803e3d6000fd5b505050506040513d601f19601f820116820180604052508101906106ad91906119ff565b90506001600160a01b0381166106d6576040516366b2cecf60e11b815260040160405180910390fd5b6001546040516302018c2960e11b81526000916001600160a01b031690630403185290610709908a903390600401611a1c565b602060405180830381865afa158015610726573d6000803e3d6000fd5b505050506040513d601f19601f8201168201806040525081019061074a9190611a47565b90508581101561076d576040516316a1a6ab60e11b815260040160405180910390fd5b600154604051633dae446f60e21b81526001600160a01b0384811660048301528781166024830152604482018990529091169063f6b911bc906064016020604051808303816000875af11580156107c8573d6000803e3d6000fd5b505050506040513d601f19601f820116820180604052508101906107ec919061197a565b50604080516001600160a01b038481168252602082018990524282840152915146928816917f822728b2e9b3325a8f48b7e695afc68b81e15a152aaa52500402d8af303f6478919081900360600190a350505050505050565b876001600160a01b03811661086d57604051634f0ff8a560e11b815260040160405180910390fd5b876001600160a01b03811661089557604051634f0ff8a560e11b815260040160405180910390fd5b86806000036108b75760405163eb9365e760e01b815260040160405180910390fd5b60405163d505accf60e01b81526001600160a01b038c81166004830152306024830152604482018a90526064820189905260ff8816608483015260a4820187905260c482018690528b169063d505accf9060e401600060405180830381600087803b15801561092557600080fd5b505af1158015610939573d6000803e3d6000fd5b50506040516323b872dd60e01b81526001600160a01b038e81166004830152306024830152604482018c90528d1692506323b872dd91506064016020604051808303816000875af1158015610992573d6000803e3d6000fd5b505050506040513d601f19601f820116820180604052508101906109b6919061197a565b50428a6001600160a01b03168c6001600160a01b03167f7c640dc4b99abc9030f33ecd8184a0d9422bd4919dc19090f82cae7ab4bb90bb468d8d600254604051610a19949392919093845260208401929092526040830152606082015260800190565b60405180910390a45050505050505050505050565b826001600160a01b038116610a5657604051634f0ff8a560e11b815260040160405180910390fd5b826001600160a01b038116610a7e57604051634f0ff8a560e11b815260040160405180910390fd5b8280600003610aa05760405163eb9365e760e01b815260040160405180910390fd5b3360009081527f4ddfba09fd552dffa20d1bcdfba7591474bea12d8293370c1f8e96088236ff9f602052604090205460ff16610aef57604051633e78b92160e01b815260040160405180910390fd5b60405163a9059cbb60e01b81526001600160a01b0387811660048301526024820186905286169063a9059cbb906044016020604051808303816000875af1158015610b3e573d6000803e3d6000fd5b505050506040513d601f19601f82011682018060405250810190610b62919061197a565b50604080516001600160a01b038781168252602082018790524282840152915146928916917f65cd6a06ca30d1a4e804e78cf9b5610e805bf360dacebe97903b74aaf903886f919081900360600190a3505050505050565b600082815260208190526040902060010154610bd581611252565b61035383836112fd565b8580600003610c015760405163eb9365e760e01b815260040160405180910390fd5b856001600160a01b038116610c2957604051634f0ff8a560e11b815260040160405180910390fd5b604080516020808201909252600090528951908a01207f3a2db9fe7908dcc36d81824d2338fc3f1aff49ac357dd8c4840527fba27a5b9001610c7e576040516329ed017b60e11b815260040160405180910390fd5b6001546040516318c04bbb60e01b81526000916001600160a01b0316906318c04bbb90610caf908d906004016119ec565b602060405180830381865afa158015610ccc573d6000803e3d6000fd5b505050506040513d601f19601f82011682018060405250810190610cf091906119ff565b90506001600160a01b038116610d19576040516366b2cecf60e11b815260040160405180910390fd5b6001546040516302018c2960e11b81526000916001600160a01b031690630403185290610d4c908e903390600401611a1c565b602060405180830381865afa158015610d69573d6000803e3d6000fd5b505050506040513d601f19601f82011682018060405250810190610d8d9190611a47565b905089811015610db0576040516316a1a6ab60e11b815260040160405180910390fd5b600154604051632dce1f6b60e01b81526001600160a01b0384811660048301528b81166024830152604482018d9052606482018b905260ff8a16608483015260a4820189905260c4820188905290911690632dce1f6b9060e4016020604051808303816000875af1158015610e29573d6000803e3d6000fd5b505050506040513d601f19601f82011682018060405250810190610e4d919061197a565b50604080516001600160a01b038481168252602082018d90524282840152915146928c16917f822728b2e9b3325a8f48b7e695afc68b81e15a152aaa52500402d8af303f6478919081900360600190a35050505050505050505050565b826001600160a01b038116610ed257604051634f0ff8a560e11b815260040160405180910390fd5b826001600160a01b038116610efa57604051634f0ff8a560e11b815260040160405180910390fd5b8280600003610f1c5760405163eb9365e760e01b815260040160405180910390fd5b3360009081527f4ddfba09fd552dffa20d1bcdfba7591474bea12d8293370c1f8e96088236ff9f602052604090205460ff16610f6b57604051633e78b92160e01b815260040160405180910390fd5b604080516020808201909252600090528851908901207f3a2db9fe7908dcc36d81824d2338fc3f1aff49ac357dd8c4840527fba27a5b9001610fc0576040516329ed017b60e11b815260040160405180910390fd5b604080516020808201909252600090528751908801207f3a2db9fe7908dcc36d81824d2338fc3f1aff49ac357dd8c4840527fba27a5b9001611015576040516341c14c8b60e01b815260040160405180910390fd5b6000886040516020016110289190611a60565b60408051601f19818403018152908290526001546318c04bbb60e01b83529092506000916001600160a01b03909116906318c04bbb9061106c9085906004016119ec565b602060405180830381865afa158015611089573d6000803e3d6000fd5b505050506040513d601f19601f820116820180604052508101906110ad91906119ff565b90506001600160a01b0381166111705760015460405163518f58c560e01b81526001600160a01b039091169063518f58c5906110ef908c908690600401611a89565b6020604051808303816000875af115801561110e573d6000803e3d6000fd5b505050506040513d601f19601f8201168201806040525081019061113291906119ff565b6001600160a01b038181166000908152600360205260409020805473ffffffffffffffffffffffffffffffffffffffff1916918a1691909117905590505b600154604051637e8816b960e01b81526001600160a01b0390911690637e8816b9906111a49085908c908b90600401611ab7565b6020604051808303816000875af11580156111c3573d6000803e3d6000fd5b505050506040513d601f19601f820116820180604052508101906111e7919061197a565b50816040516111f69190611ae5565b604051809103902046896001600160a01b03167fc0a7803738f32a4f69e89f82d5cbff000008c410db88bd49d4f62515db924577848a428f60405161123e9493929190611b01565b60405180910390a450505050505050505050565b61125c813361137c565b50565b6000828152602081815260408083206001600160a01b038516845290915290205460ff166103e5576000828152602081815260408083206001600160a01b03851684529091529020805460ff191660011790556112b93390565b6001600160a01b0316816001600160a01b0316837f2f8788117e7eff1d82e926ec794901d17c78024a50270940304540a733656f0d60405160405180910390a45050565b6000828152602081815260408083206001600160a01b038516845290915290205460ff16156103e5576000828152602081815260408083206001600160a01b0385168085529252808320805460ff1916905551339285917ff6391f5c32d9c69d2a47ea670b442974b53935d1edc7fd64eb21e047a839171b9190a45050565b6000828152602081815260408083206001600160a01b038516845290915290205460ff166103e5576113b8816001600160a01b031660146113fa565b6113c38360206113fa565b6040516020016113d4929190611b39565b60408051601f198184030181529082905262461bcd60e51b82526103d2916004016119ec565b60606000611409836002611bd0565b611414906002611be7565b67ffffffffffffffff81111561142c5761142c611678565b6040519080825280601f01601f191660200182016040528015611456576020820181803683370190505b509050600360fc1b8160008151811061147157611471611bfa565b60200101906001600160f81b031916908160001a905350600f60fb1b816001815181106114a0576114a0611bfa565b60200101906001600160f81b031916908160001a90535060006114c4846002611bd0565b6114cf906001611be7565b90505b6001811115611554577f303132333435363738396162636465660000000000000000000000000000000085600f166010811061151057611510611bfa565b1a60f81b82828151811061152657611526611bfa565b60200101906001600160f81b031916908160001a90535060049490941c9361154d81611c10565b90506114d2565b5083156115a35760405162461bcd60e51b815260206004820181905260248201527f537472696e67733a20686578206c656e67746820696e73756666696369656e7460448201526064016103d2565b9392505050565b6000602082840312156115bc57600080fd5b81356001600160e01b0319811681146115a357600080fd5b6000602082840312156115e657600080fd5b5035919050565b6001600160a01b038116811461125c57600080fd5b6000806040838503121561161557600080fd5b823591506020830135611627816115ed565b809150509250929050565b6000806000806080858703121561164857600080fd5b8435611653816115ed565b93506020850135611663816115ed565b93969395505050506040820135916060013590565b634e487b7160e01b600052604160045260246000fd5b600082601f83011261169f57600080fd5b813567ffffffffffffffff808211156116ba576116ba611678565b604051601f8301601f19908116603f011681019082821181831017156116e2576116e2611678565b816040528381528660208588010111156116fb57600080fd5b836020870160208301376000602085830101528094505050505092915050565b60008060006060848603121561173057600080fd5b833567ffffffffffffffff81111561174757600080fd5b6117538682870161168e565b93505060208401359150604084013561176b816115ed565b809150509250925092565b60006020828403121561178857600080fd5b81356115a3816115ed565b803560ff811681146117a457600080fd5b919050565b600080600080600080600080610100898b0312156117c657600080fd5b88356117d1816115ed565b975060208901356117e1816115ed565b965060408901359550606089013594506080890135935061180460a08a01611793565b925060c0890135915060e089013590509295985092959890939650565b60008060006060848603121561183657600080fd5b8335611841816115ed565b92506020840135611851816115ed565b929592945050506040919091013590565b600080600080600080600060e0888a03121561187d57600080fd5b873567ffffffffffffffff81111561189457600080fd5b6118a08a828b0161168e565b9750506020880135955060408801356118b8816115ed565b9450606088013593506118cd60808901611793565b925060a0880135915060c0880135905092959891949750929550565b600080600080600060a0868803121561190157600080fd5b853567ffffffffffffffff8082111561191957600080fd5b61192589838a0161168e565b9650602088013591508082111561193b57600080fd5b506119488882890161168e565b9450506040860135611959816115ed565b92506060860135611969816115ed565b949793965091946080013592915050565b60006020828403121561198c57600080fd5b815180151581146115a357600080fd5b60005b838110156119b757818101518382015260200161199f565b50506000910152565b600081518084526119d881602086016020860161199c565b601f01601f19169290920160200192915050565b6020815260006115a360208301846119c0565b600060208284031215611a1157600080fd5b81516115a3816115ed565b604081526000611a2f60408301856119c0565b90506001600160a01b03831660208301529392505050565b600060208284031215611a5957600080fd5b5051919050565b605760f81b815260008251611a7c81600185016020870161199c565b9190910160010192915050565b604081526000611a9c60408301856119c0565b8281036020840152611aae81856119c0565b95945050505050565b606081526000611aca60608301866119c0565b6001600160a01b039490941660208301525060400152919050565b60008251611af781846020870161199c565b9190910192915050565b6001600160a01b0385168152836020820152826040820152608060608201526000611b2f60808301846119c0565b9695505050505050565b7f416363657373436f6e74726f6c3a206163636f756e7420000000000000000000815260008351611b7181601785016020880161199c565b7f206973206d697373696e6720726f6c65200000000000000000000000000000006017918401918201528351611bae81602884016020880161199c565b01602801949350505050565b634e487b7160e01b600052601160045260246000fd5b808202811582820484141761032857610328611bba565b8082018082111561032857610328611bba565b634e487b7160e01b600052603260045260246000fd5b600081611c1f57611c1f611bba565b50600019019056fea26469706673582212202e6296e28df6a93856a173e89124849f2bec4666c8a9e50fd5fe5dbbec68fb7c64736f6c63430008110033608060405234801561001057600080fd5b5061001a3361001f565b61006f565b600080546001600160a01b038381166001600160a01b0319831681178455604051919092169283917f8be0079c531659141344cd1fd0a4f28419497f9722a3daafe3b4186f6b6457e09190a35050565b61285a8061007e6000396000f3fe60806040523480156200001157600080fd5b5060043610620000c85760003560e01c8063715018a6116200008b578063d3e2a0ca1162000062578063d3e2a0ca14620001b2578063f2fde38b14620001e9578063f6b911bc146200020057600080fd5b8063715018a6146200017d5780637e8816b914620001895780638da5cb5b14620001a057600080fd5b80630403185214620000cd57806318c04bbb14620000f75780632dce1f6b1462000127578063518f58c5146200014f578063640df6441462000166575b600080fd5b620000e4620000de36600462000c9f565b62000217565b6040519081526020015b60405180910390f35b6200010e6200010836600462000cf3565b6200033c565b6040516001600160a01b039091168152602001620000ee565b6200013e6200013836600462000d2c565b620003b0565b6040519015158152602001620000ee565b6200010e6200016036600462000da5565b6200052e565b620000e46200017736600462000cf3565b6200073b565b620001876200082a565b005b6200013e6200019a36600462000e10565b62000842565b6000546001600160a01b03166200010e565b6200010e620001c336600462000cf3565b80516020818301810180516001825292820191909301209152546001600160a01b031681565b62000187620001fa36600462000e6d565b6200099f565b6200013e6200021136600462000e92565b62000a1e565b60008260405180602001604052806000815250805190602001208180519060200120036200025857604051632490c16760e21b815260040160405180910390fd5b826001600160a01b03811662000281576040516333e7d0b760e11b815260040160405180910390fd5b60006200028e866200033c565b90506001600160a01b038116620002c557856040516302853be960e21b8152600401620002bc919062000f17565b60405180910390fd5b6040516370a0823160e01b81526001600160a01b0386811660048301528216906370a0823190602401602060405180830381865afa1580156200030c573d6000803e3d6000fd5b505050506040513d601f19601f8201168201806040525081019062000332919062000f2c565b9695505050505050565b60008160405180602001604052806000815250805190602001208180519060200120036200037d57604051632490c16760e21b815260040160405180910390fd5b6001836040516200038f919062000f46565b908152604051908190036020019020546001600160a01b0316915050919050565b6000620003bc62000b10565b876001600160a01b038116620003e5576040516333e7d0b760e11b815260040160405180910390fd5b876001600160a01b0381166200040e576040516333e7d0b760e11b815260040160405180910390fd5b878060000362000431576040516309a2714360e21b815260040160405180910390fd5b60405163d505accf60e01b81526001600160a01b038b81166004830152306024830152604482018b9052606482018a905260ff8916608483015260a4820188905260c482018790528c169063d505accf9060e401600060405180830381600087803b158015620004a057600080fd5b505af1158015620004b5573d6000803e3d6000fd5b505060405163079cc67960e41b81526001600160a01b038d81166004830152602482018d90528e1692506379cc67909150604401600060405180830381600087803b1580156200050457600080fd5b505af115801562000519573d6000803e3d6000fd5b5060019e9d5050505050505050505050505050565b60006200053a62000b10565b6040805160208082019092526000905282519083012082907f3a2db9fe7908dcc36d81824d2338fc3f1aff49ac357dd8c4840527fba27a5b90016200059257604051632490c16760e21b815260040160405180910390fd5b6040805160208082019092526000905284519085012084907f3a2db9fe7908dcc36d81824d2338fc3f1aff49ac357dd8c4840527fba27a5b9001620005ea57604051632f9f8ab360e11b815260040160405180910390fd5b60006001600160a01b031660018560405162000607919062000f46565b908152604051908190036020019020546001600160a01b03161462000643578360405163085bc08760e41b8152600401620002bc919062000f17565b60008585604051620006559062000bc9565b6200066292919062000f64565b604051809103906000f0801580156200067f573d6000803e3d6000fd5b5090508060018660405162000695919062000f46565b90815260405190819003602001812080546001600160a01b039390931673ffffffffffffffffffffffffffffffffffffffff1990931692909217909155620006df90869062000f46565b604051809103902086604051620006f7919062000f46565b604051908190038120906001600160a01b038416907ffb30167b90e3d8f2deaf0ebbb65d1849868ebf79c6d25c020b39fa156f61a9a990600090a495945050505050565b60008160405180602001604052806000815250805190602001208180519060200120036200077c57604051632490c16760e21b815260040160405180910390fd5b600062000789846200033c565b90506001600160a01b038116620007b757836040516302853be960e21b8152600401620002bc919062000f17565b6040516370a0823160e01b81523360048201526001600160a01b038216906370a0823190602401602060405180830381865afa158015620007fc573d6000803e3d6000fd5b505050506040513d601f19601f8201168201806040525081019062000822919062000f2c565b949350505050565b6200083462000b10565b62000840600062000b6c565b565b60006200084e62000b10565b826001600160a01b03811662000877576040516333e7d0b760e11b815260040160405180910390fd5b6040805160208082019092526000905285519086012085907f3a2db9fe7908dcc36d81824d2338fc3f1aff49ac357dd8c4840527fba27a5b9001620008cf57604051632490c16760e21b815260040160405180910390fd5b8380600003620008f2576040516309a2714360e21b815260040160405180910390fd5b6000620008ff886200033c565b90506001600160a01b0381166200092d57876040516302853be960e21b8152600401620002bc919062000f17565b6040516340c10f1960e01b81526001600160a01b038881166004830152602482018890528216906340c10f1990604401600060405180830381600087803b1580156200097857600080fd5b505af11580156200098d573d6000803e3d6000fd5b5060019b9a5050505050505050505050565b620009a962000b10565b6001600160a01b03811662000a105760405162461bcd60e51b815260206004820152602660248201527f4f776e61626c653a206e6577206f776e657220697320746865207a65726f206160448201526564647265737360d01b6064820152608401620002bc565b62000a1b8162000b6c565b50565b600062000a2a62000b10565b836001600160a01b03811662000a53576040516333e7d0b760e11b815260040160405180910390fd5b836001600160a01b03811662000a7c576040516333e7d0b760e11b815260040160405180910390fd5b838060000362000a9f576040516309a2714360e21b815260040160405180910390fd5b60405163079cc67960e41b81526001600160a01b038781166004830152602482018790528816906379cc679090604401600060405180830381600087803b15801562000aea57600080fd5b505af115801562000aff573d6000803e3d6000fd5b5060019a9950505050505050505050565b6000546001600160a01b03163314620008405760405162461bcd60e51b815260206004820181905260248201527f4f776e61626c653a2063616c6c6572206973206e6f7420746865206f776e65726044820152606401620002bc565b600080546001600160a01b0383811673ffffffffffffffffffffffffffffffffffffffff19831681178455604051919092169283917f8be0079c531659141344cd1fd0a4f28419497f9722a3daafe3b4186f6b6457e09190a35050565b61188e8062000f9783390190565b634e487b7160e01b600052604160045260246000fd5b600082601f83011262000bff57600080fd5b813567ffffffffffffffff8082111562000c1d5762000c1d62000bd7565b604051601f8301601f19908116603f0116810190828211818310171562000c485762000c4862000bd7565b8160405283815286602085880101111562000c6257600080fd5b836020870160208301376000602085830101528094505050505092915050565b80356001600160a01b038116811462000c9a57600080fd5b919050565b6000806040838503121562000cb357600080fd5b823567ffffffffffffffff81111562000ccb57600080fd5b62000cd98582860162000bed565b92505062000cea6020840162000c82565b90509250929050565b60006020828403121562000d0657600080fd5b813567ffffffffffffffff81111562000d1e57600080fd5b620008228482850162000bed565b600080600080600080600060e0888a03121562000d4857600080fd5b62000d538862000c82565b965062000d636020890162000c82565b95506040880135945060608801359350608088013560ff8116811462000d8857600080fd5b9699959850939692959460a0840135945060c09093013592915050565b6000806040838503121562000db957600080fd5b823567ffffffffffffffff8082111562000dd257600080fd5b62000de08683870162000bed565b9350602085013591508082111562000df757600080fd5b5062000e068582860162000bed565b9150509250929050565b60008060006060848603121562000e2657600080fd5b833567ffffffffffffffff81111562000e3e57600080fd5b62000e4c8682870162000bed565b93505062000e5d6020850162000c82565b9150604084013590509250925092565b60006020828403121562000e8057600080fd5b62000e8b8262000c82565b9392505050565b60008060006060848603121562000ea857600080fd5b62000eb38462000c82565b925062000e5d6020850162000c82565b60005b8381101562000ee057818101518382015260200162000ec6565b50506000910152565b6000815180845262000f0381602086016020860162000ec3565b601f01601f19169290920160200192915050565b60208152600062000e8b602083018462000ee9565b60006020828403121562000f3f57600080fd5b5051919050565b6000825162000f5a81846020870162000ec3565b9190910192915050565b60408152600062000f79604083018562000ee9565b828103602084015262000f8d818562000ee9565b9594505050505056fe6101406040523480156200001257600080fd5b506040516200188e3803806200188e833981016040819052620000359162000243565b6040805180820190915260018152603160f81b602082015282908190818460036200006183826200033c565b5060046200007082826200033c565b5050506200008d620000876200012860201b60201c565b6200012c565b815160208084019190912082518383012060e08290526101008190524660a0818152604080517f8b73c3c69bb8fe3d512ecc4cf759cc79239f7b179b0ffacaa9a75d522b39400f81880181905281830187905260608201869052608082019490945230818401528151808203909301835260c00190528051940193909320919290916080523060c05261012052506200040895505050505050565b3390565b600580546001600160a01b038381166001600160a01b0319831681179093556040519116919082907f8be0079c531659141344cd1fd0a4f28419497f9722a3daafe3b4186f6b6457e090600090a35050565b634e487b7160e01b600052604160045260246000fd5b600082601f830112620001a657600080fd5b81516001600160401b0380821115620001c357620001c36200017e565b604051601f8301601f19908116603f01168101908282118183101715620001ee57620001ee6200017e565b816040528381526020925086838588010111156200020b57600080fd5b600091505b838210156200022f578582018301518183018401529082019062000210565b600093810190920192909252949350505050565b600080604083850312156200025757600080fd5b82516001600160401b03808211156200026f57600080fd5b6200027d8683870162000194565b935060208501519150808211156200029457600080fd5b50620002a38582860162000194565b9150509250929050565b600181811c90821680620002c257607f821691505b602082108103620002e357634e487b7160e01b600052602260045260246000fd5b50919050565b601f8211156200033757600081815260208120601f850160051c81016020861015620003125750805b601f850160051c820191505b8181101562000333578281556001016200031e565b5050505b505050565b81516001600160401b038111156200035857620003586200017e565b6200037081620003698454620002ad565b84620002e9565b602080601f831160018114620003a857600084156200038f5750858301515b600019600386901b1c1916600185901b17855562000333565b600085815260208120601f198616915b82811015620003d957888601518255948401946001909101908401620003b8565b5085821015620003f85787850151600019600388901b60f8161c191681555b5050505050600190811b01905550565b60805160a05160c05160e0516101005161012051611436620004586000396000610b0d01526000610b5c01526000610b3701526000610a9001526000610aba01526000610ae401526114366000f3fe608060405234801561001057600080fd5b506004361061012c5760003560e01c8063715018a6116100ad578063a457c2d711610071578063a457c2d714610263578063a9059cbb14610276578063d505accf14610289578063dd62ed3e1461029c578063f2fde38b146102d557600080fd5b8063715018a61461021257806379cc67901461021a5780637ecebe001461022d5780638da5cb5b1461024057806395d89b411461025b57600080fd5b80633644e515116100f45780633644e515146101a657806339509351146101ae57806340c10f19146101c157806342966c68146101d657806370a08231146101e957600080fd5b806306fdde0314610131578063095ea7b31461014f57806318160ddd1461017257806323b872dd14610184578063313ce56714610197575b600080fd5b6101396102e8565b60405161014691906111c9565b60405180910390f35b61016261015d366004611233565b61037a565b6040519015158152602001610146565b6002545b604051908152602001610146565b61016261019236600461125d565b610394565b60405160128152602001610146565b6101766103b8565b6101626101bc366004611233565b6103c7565b6101d46101cf366004611233565b610406565b005b6101d46101e4366004611299565b61041c565b6101766101f73660046112b2565b6001600160a01b031660009081526020819052604090205490565b6101d4610429565b6101d4610228366004611233565b61043d565b61017661023b3660046112b2565b610452565b6005546040516001600160a01b039091168152602001610146565b610139610470565b610162610271366004611233565b61047f565b610162610284366004611233565b610516565b6101d46102973660046112d4565b610524565b6101766102aa366004611347565b6001600160a01b03918216600090815260016020908152604080832093909416825291909152205490565b6101d46102e33660046112b2565b610688565b6060600380546102f79061137a565b80601f01602080910402602001604051908101604052809291908181526020018280546103239061137a565b80156103705780601f1061034557610100808354040283529160200191610370565b820191906000526020600020905b81548152906001019060200180831161035357829003601f168201915b5050505050905090565b6000336103888185856106fe565b60019150505b92915050565b6000336103a2858285610823565b6103ad8585856108b5565b506001949350505050565b60006103c2610a83565b905090565b3360008181526001602090815260408083206001600160a01b038716845290915281205490919061038890829086906104019087906113c4565b6106fe565b61040e610baa565b6104188282610c04565b5050565b6104263382610ce3565b50565b610431610baa565b61043b6000610e29565b565b610448823383610823565b6104188282610ce3565b6001600160a01b03811660009081526006602052604081205461038e565b6060600480546102f79061137a565b3360008181526001602090815260408083206001600160a01b0387168452909152812054909190838110156105095760405162461bcd60e51b815260206004820152602560248201527f45524332303a2064656372656173656420616c6c6f77616e63652062656c6f77604482015264207a65726f60d81b60648201526084015b60405180910390fd5b6103ad82868684036106fe565b6000336103888185856108b5565b834211156105745760405162461bcd60e51b815260206004820152601d60248201527f45524332305065726d69743a206578706972656420646561646c696e650000006044820152606401610500565b60007f6e71edae12b1b97f4d1f60370fef10105fa2faae0126114a169c64845d6126c98888886105a38c610e88565b6040805160208101969096526001600160a01b0394851690860152929091166060840152608083015260a082015260c0810186905260e00160405160208183030381529060405280519060200120905060006105fe82610eb0565b9050600061060e82878787610efe565b9050896001600160a01b0316816001600160a01b0316146106715760405162461bcd60e51b815260206004820152601e60248201527f45524332305065726d69743a20696e76616c6964207369676e617475726500006044820152606401610500565b61067c8a8a8a6106fe565b50505050505050505050565b610690610baa565b6001600160a01b0381166106f55760405162461bcd60e51b815260206004820152602660248201527f4f776e61626c653a206e6577206f776e657220697320746865207a65726f206160448201526564647265737360d01b6064820152608401610500565b61042681610e29565b6001600160a01b0383166107605760405162461bcd60e51b8152602060048201526024808201527f45524332303a20617070726f76652066726f6d20746865207a65726f206164646044820152637265737360e01b6064820152608401610500565b6001600160a01b0382166107c15760405162461bcd60e51b815260206004820152602260248201527f45524332303a20617070726f766520746f20746865207a65726f206164647265604482015261737360f01b6064820152608401610500565b6001600160a01b0383811660008181526001602090815260408083209487168084529482529182902085905590518481527f8c5be1e5ebec7d5bd14f71427d1e84f3dd0314c0f7b2291e5b200ac8c7c3b92591015b60405180910390a3505050565b6001600160a01b0383811660009081526001602090815260408083209386168352929052205460001981146108af57818110156108a25760405162461bcd60e51b815260206004820152601d60248201527f45524332303a20696e73756666696369656e7420616c6c6f77616e63650000006044820152606401610500565b6108af84848484036106fe565b50505050565b6001600160a01b0383166109195760405162461bcd60e51b815260206004820152602560248201527f45524332303a207472616e736665722066726f6d20746865207a65726f206164604482015264647265737360d81b6064820152608401610500565b6001600160a01b03821661097b5760405162461bcd60e51b815260206004820152602360248201527f45524332303a207472616e7366657220746f20746865207a65726f206164647260448201526265737360e81b6064820152608401610500565b6001600160a01b038316600090815260208190526040902054818110156109f35760405162461bcd60e51b815260206004820152602660248201527f45524332303a207472616e7366657220616d6f756e7420657863656564732062604482015265616c616e636560d01b6064820152608401610500565b6001600160a01b03808516600090815260208190526040808220858503905591851681529081208054849290610a2a9084906113c4565b92505081905550826001600160a01b0316846001600160a01b03167fddf252ad1be2c89b69c2b068fc378daa952ba7f163c4a11628f55a4df523b3ef84604051610a7691815260200190565b60405180910390a36108af565b6000306001600160a01b037f000000000000000000000000000000000000000000000000000000000000000016148015610adc57507f000000000000000000000000000000000000000000000000000000000000000046145b15610b0657507f000000000000000000000000000000000000000000000000000000000000000090565b50604080517f00000000000000000000000000000000000000000000000000000000000000006020808301919091527f0000000000000000000000000000000000000000000000000000000000000000828401527f000000000000000000000000000000000000000000000000000000000000000060608301524660808301523060a0808401919091528351808403909101815260c0909201909252805191012090565b6005546001600160a01b0316331461043b5760405162461bcd60e51b815260206004820181905260248201527f4f776e61626c653a2063616c6c6572206973206e6f7420746865206f776e65726044820152606401610500565b6001600160a01b038216610c5a5760405162461bcd60e51b815260206004820152601f60248201527f45524332303a206d696e7420746f20746865207a65726f2061646472657373006044820152606401610500565b8060026000828254610c6c91906113c4565b90915550506001600160a01b03821660009081526020819052604081208054839290610c999084906113c4565b90915550506040518181526001600160a01b038316906000907fddf252ad1be2c89b69c2b068fc378daa952ba7f163c4a11628f55a4df523b3ef9060200160405180910390a35050565b6001600160a01b038216610d435760405162461bcd60e51b815260206004820152602160248201527f45524332303a206275726e2066726f6d20746865207a65726f206164647265736044820152607360f81b6064820152608401610500565b6001600160a01b03821660009081526020819052604090205481811015610db75760405162461bcd60e51b815260206004820152602260248201527f45524332303a206275726e20616d6f756e7420657863656564732062616c616e604482015261636560f01b6064820152608401610500565b6001600160a01b0383166000908152602081905260408120838303905560028054849290610de69084906113d7565b90915550506040518281526000906001600160a01b038516907fddf252ad1be2c89b69c2b068fc378daa952ba7f163c4a11628f55a4df523b3ef90602001610816565b600580546001600160a01b0383811673ffffffffffffffffffffffffffffffffffffffff19831681179093556040519116919082907f8be0079c531659141344cd1fd0a4f28419497f9722a3daafe3b4186f6b6457e090600090a35050565b6001600160a01b03811660009081526006602052604090208054600181018255905b50919050565b600061038e610ebd610a83565b8360405161190160f01b6020820152602281018390526042810182905260009060620160405160208183030381529060405280519060200120905092915050565b6000806000610f0f87878787610f26565b91509150610f1c81611013565b5095945050505050565b6000807f7fffffffffffffffffffffffffffffff5d576e7357a4501ddfe92f46681b20a0831115610f5d575060009050600361100a565b8460ff16601b14158015610f7557508460ff16601c14155b15610f86575060009050600461100a565b6040805160008082526020820180845289905260ff881692820192909252606081018690526080810185905260019060a0016020604051602081039080840390855afa158015610fda573d6000803e3d6000fd5b5050604051601f1901519150506001600160a01b0381166110035760006001925092505061100a565b9150600090505b94509492505050565b6000816004811115611027576110276113ea565b0361102f5750565b6001816004811115611043576110436113ea565b036110905760405162461bcd60e51b815260206004820152601860248201527f45434453413a20696e76616c6964207369676e617475726500000000000000006044820152606401610500565b60028160048111156110a4576110a46113ea565b036110f15760405162461bcd60e51b815260206004820152601f60248201527f45434453413a20696e76616c6964207369676e6174757265206c656e677468006044820152606401610500565b6003816004811115611105576111056113ea565b0361115d5760405162461bcd60e51b815260206004820152602260248201527f45434453413a20696e76616c6964207369676e6174757265202773272076616c604482015261756560f01b6064820152608401610500565b6004816004811115611171576111716113ea565b036104265760405162461bcd60e51b815260206004820152602260248201527f45434453413a20696e76616c6964207369676e6174757265202776272076616c604482015261756560f01b6064820152608401610500565b600060208083528351808285015260005b818110156111f6578581018301518582016040015282016111da565b506000604082860101526040601f19601f8301168501019250505092915050565b80356001600160a01b038116811461122e57600080fd5b919050565b6000806040838503121561124657600080fd5b61124f83611217565b946020939093013593505050565b60008060006060848603121561127257600080fd5b61127b84611217565b925061128960208501611217565b9150604084013590509250925092565b6000602082840312156112ab57600080fd5b5035919050565b6000602082840312156112c457600080fd5b6112cd82611217565b9392505050565b600080600080600080600060e0888a0312156112ef57600080fd5b6112f888611217565b965061130660208901611217565b95506040880135945060608801359350608088013560ff8116811461132a57600080fd5b9699959850939692959460a0840135945060c09093013592915050565b6000806040838503121561135a57600080fd5b61136383611217565b915061137160208401611217565b90509250929050565b600181811c9082168061138e57607f821691505b602082108103610eaa57634e487b7160e01b600052602260045260246000fd5b634e487b7160e01b600052601160045260246000fd5b8082018082111561038e5761038e6113ae565b8181038181111561038e5761038e6113ae565b634e487b7160e01b600052602160045260246000fdfea2646970667358221220614f149d7f973ea845dd21314258a455d8f3f9d58cd9586c684144b5dcaf881b64736f6c63430008110033a2646970667358221220422dc9b2a6d64ab70904b8bb3892e78813ee6bcca2c78e5ab70ce26303a6798864736f6c63430008110033",
  "linkReferences": {},
  "deployedLinkReferences": {}
}