{
  "_format": "hh-sol-artifact-1",
  "contractName": "Bridge",
  "sourceName": "contracts/Bridge.sol",
  "abi": [
    {
      "inputs": [],
      "stateMutability": "nonpayable",
      "type": "constructor"
    },
    {
      "inputs": [],
      "name": "Bridge__FundsCannotBeZero",
      "type": "error"
    },
    {
      "inputs": [],
      "name": "Bridge__InsufficientBalance",
      "type": "error"
    },
    {
      "inputs": [],
      "name": "Bridge__NotAllowedToDoThisAction",
      "type": "error"
    },
    {
      "inputs": [],
      "name": "Bridge__TokenNameEmpty",
      "type": "error"
    },
    {
      "inputs": [],
      "name": "Bridge__TokenSymbolEmpty",
      "type": "error"
    },
    {
      "inputs": [],
      "name": "Bridge__TransferToBridgeFailed",
      "type": "error"
    },
    {
      "inputs": [],
      "name": "Bridge__UnwrappingFailed",
      "type": "error"
    },
    {
      "inputs": [],
      "name": "Bridge__WrapTokenDoesNotExist",
      "type": "error"
    },
    {
      "inputs": [],
      "name": "Bridge__ZeroAddressProvided",
      "type": "error"
    },
    {
      "anonymous": false,
      "inputs": [
        {
          "indexed": true,
          "internalType": "address",
          "name": "user",
          "type": "address"
        },
        {
          "indexed": false,
          "internalType": "address",
          "name": "tokenAddress",
          "type": "address"
        },
        {
          "indexed": false,
          "internalType": "uint256",
          "name": "amount",
          "type": "uint256"
        },
        {
          "indexed": true,
          "internalType": "uint256",
          "name": "chainId",
          "type": "uint256"
        }
      ],
      "name": "BurnedToken",
      "type": "event"
    },
    {
      "anonymous": false,
      "inputs": [
        {
          "indexed": true,
          "internalType": "bytes32",
          "name": "role",
          "type": "bytes32"
        },
        {
          "indexed": true,
          "internalType": "bytes32",
          "name": "previousAdminRole",
          "type": "bytes32"
        },
        {
          "indexed": true,
          "internalType": "bytes32",
          "name": "newAdminRole",
          "type": "bytes32"
        }
      ],
      "name": "RoleAdminChanged",
      "type": "event"
    },
    {
      "anonymous": false,
      "inputs": [
        {
          "indexed": true,
          "internalType": "bytes32",
          "name": "role",
          "type": "bytes32"
        },
        {
          "indexed": true,
          "internalType": "address",
          "name": "account",
          "type": "address"
        },
        {
          "indexed": true,
          "internalType": "address",
          "name": "sender",
          "type": "address"
        }
      ],
      "name": "RoleGranted",
      "type": "event"
    },
    {
      "anonymous": false,
      "inputs": [
        {
          "indexed": true,
          "internalType": "bytes32",
          "name": "role",
          "type": "bytes32"
        },
        {
          "indexed": true,
          "internalType": "address",
          "name": "account",
          "type": "address"
        },
        {
          "indexed": true,
          "internalType": "address",
          "name": "sender",
          "type": "address"
        }
      ],
      "name": "RoleRevoked",
      "type": "event"
    },
    {
      "anonymous": false,
      "inputs": [
        {
          "indexed": true,
          "internalType": "address",
          "name": "user",
          "type": "address"
        },
        {
          "indexed": false,
          "internalType": "address",
          "name": "tokenAddress",
          "type": "address"
        },
        {
          "indexed": false,
          "internalType": "uint256",
          "name": "amount",
          "type": "uint256"
        },
        {
          "indexed": true,
          "internalType": "uint256",
          "name": "chainId",
          "type": "uint256"
        },
        {
          "indexed": true,
          "internalType": "string",
          "name": "tokenSymbol",
          "type": "string"
        },
        {
          "indexed": false,
          "internalType": "string",
          "name": "tokenName",
          "type": "string"
        }
      ],
      "name": "TransferCompleted",
      "type": "event"
    },
    {
      "anonymous": false,
      "inputs": [
        {
          "indexed": true,
          "internalType": "address",
          "name": "user",
          "type": "address"
        },
        {
          "indexed": false,
          "internalType": "address",
          "name": "tokenAddress",
          "type": "address"
        },
        {
          "indexed": false,
          "internalType": "uint256",
          "name": "sourceChainId",
          "type": "uint256"
        },
        {
          "indexed": false,
          "internalType": "uint256",
          "name": "amount",
          "type": "uint256"
        },
        {
          "indexed": true,
          "internalType": "uint256",
          "name": "targetChainId",
          "type": "uint256"
        },
        {
          "indexed": true,
          "internalType": "string",
          "name": "tokenSymbol",
          "type": "string"
        },
        {
          "indexed": false,
          "internalType": "string",
          "name": "tokenName",
          "type": "string"
        }
      ],
      "name": "TransferInitiated",
      "type": "event"
    },
    {
      "anonymous": false,
      "inputs": [
        {
          "indexed": true,
          "internalType": "address",
          "name": "user",
          "type": "address"
        },
        {
          "indexed": false,
          "internalType": "address",
          "name": "nativeTokenAddress",
          "type": "address"
        },
        {
          "indexed": false,
          "internalType": "address",
          "name": "werc20Address",
          "type": "address"
        },
        {
          "indexed": false,
          "internalType": "uint256",
          "name": "amount",
          "type": "uint256"
        },
        {
          "indexed": true,
          "internalType": "uint256",
          "name": "chainId",
          "type": "uint256"
        }
      ],
      "name": "UwrappedToken",
      "type": "event"
    },
    {
      "anonymous": false,
      "inputs": [
        {
          "indexed": true,
          "internalType": "address",
          "name": "tokenAddress",
          "type": "address"
        },
        {
          "indexed": true,
          "internalType": "address",
          "name": "to",
          "type": "address"
        }
      ],
      "name": "WithdrawToken",
      "type": "event"
    },
    {
      "inputs": [],
      "name": "DEFAULT_ADMIN_ROLE",
      "outputs": [
        {
          "internalType": "bytes32",
          "name": "",
          "type": "bytes32"
        }
      ],
      "stateMutability": "view",
      "type": "function"
    },
    {
      "inputs": [],
      "name": "RELAYER",
      "outputs": [
        {
          "internalType": "bytes32",
          "name": "",
          "type": "bytes32"
        }
      ],
      "stateMutability": "view",
      "type": "function"
    },
    {
      "inputs": [
        {
          "internalType": "string",
          "name": "_symbol",
          "type": "string"
        },
        {
          "internalType": "uint256",
          "name": "_amount",
          "type": "uint256"
        },
        {
          "internalType": "address",
          "name": "_user",
          "type": "address"
        }
      ],
      "name": "burnWrappedToken",
      "outputs": [],
      "stateMutability": "nonpayable",
      "type": "function"
    },
    {
      "inputs": [],
      "name": "factory",
      "outputs": [
        {
          "internalType": "contract WERC20Factory",
          "name": "",
          "type": "address"
        }
      ],
      "stateMutability": "view",
      "type": "function"
    },
    {
      "inputs": [
        {
          "internalType": "bytes32",
          "name": "role",
          "type": "bytes32"
        }
      ],
      "name": "getRoleAdmin",
      "outputs": [
        {
          "internalType": "bytes32",
          "name": "",
          "type": "bytes32"
        }
      ],
      "stateMutability": "view",
      "type": "function"
    },
    {
      "inputs": [
        {
          "internalType": "bytes32",
          "name": "role",
          "type": "bytes32"
        },
        {
          "internalType": "address",
          "name": "account",
          "type": "address"
        }
      ],
      "name": "grantRole",
      "outputs": [],
      "stateMutability": "nonpayable",
      "type": "function"
    },
    {
      "inputs": [
        {
          "internalType": "bytes32",
          "name": "role",
          "type": "bytes32"
        },
        {
          "internalType": "address",
          "name": "account",
          "type": "address"
        }
      ],
      "name": "hasRole",
      "outputs": [
        {
          "internalType": "bool",
          "name": "",
          "type": "bool"
        }
      ],
      "stateMutability": "view",
      "type": "function"
    },
    {
      "inputs": [
        {
          "internalType": "address",
          "name": "_user",
          "type": "address"
        },
        {
          "internalType": "address",
          "name": "_tokenAddress",
          "type": "address"
        },
        {
          "internalType": "uint256",
          "name": "_targetChainId",
          "type": "uint256"
        },
        {
          "internalType": "uint256",
          "name": "_amount",
          "type": "uint256"
        },
        {
          "internalType": "string",
          "name": "_tokenName",
          "type": "string"
        },
        {
          "internalType": "string",
          "name": "_tokenSymbol",
          "type": "string"
        }
      ],
      "name": "initiateTransfer",
      "outputs": [],
      "stateMutability": "nonpayable",
      "type": "function"
    },
    {
      "inputs": [
        {
          "internalType": "string",
          "name": "_symbol",
          "type": "string"
        },
        {
          "internalType": "string",
          "name": "_tokenName",
          "type": "string"
        },
        {
          "internalType": "address",
          "name": "_to",
          "type": "address"
        },
        {
          "internalType": "address",
          "name": "_tokenAddress",
          "type": "address"
        },
        {
          "internalType": "uint256",
          "name": "_amount",
          "type": "uint256"
        }
      ],
      "name": "mintToken",
      "outputs": [],
      "stateMutability": "nonpayable",
      "type": "function"
    },
    {
      "inputs": [
        {
          "internalType": "address",
          "name": "",
          "type": "address"
        }
      ],
      "name": "nativeToWrapped",
      "outputs": [
        {
          "internalType": "address",
          "name": "",
          "type": "address"
        }
      ],
      "stateMutability": "view",
      "type": "function"
    },
    {
      "inputs": [
        {
          "internalType": "bytes32",
          "name": "role",
          "type": "bytes32"
        },
        {
          "internalType": "address",
          "name": "account",
          "type": "address"
        }
      ],
      "name": "renounceRole",
      "outputs": [],
      "stateMutability": "nonpayable",
      "type": "function"
    },
    {
      "inputs": [
        {
          "internalType": "bytes32",
          "name": "role",
          "type": "bytes32"
        },
        {
          "internalType": "address",
          "name": "account",
          "type": "address"
        }
      ],
      "name": "revokeRole",
      "outputs": [],
      "stateMutability": "nonpayable",
      "type": "function"
    },
    {
      "inputs": [
        {
          "internalType": "bytes4",
          "name": "interfaceId",
          "type": "bytes4"
        }
      ],
      "name": "supportsInterface",
      "outputs": [
        {
          "internalType": "bool",
          "name": "",
          "type": "bool"
        }
      ],
      "stateMutability": "view",
      "type": "function"
    },
    {
      "inputs": [
        {
          "internalType": "address",
          "name": "_to",
          "type": "address"
        },
        {
          "internalType": "address",
          "name": "_tokenAddress",
          "type": "address"
        },
        {
          "internalType": "uint256",
          "name": "_amount",
          "type": "uint256"
        }
      ],
      "name": "unWrapToken",
      "outputs": [],
      "stateMutability": "nonpayable",
      "type": "function"
    },
    {
      "inputs": [
        {
          "internalType": "address",
          "name": "_tokenAddress",
          "type": "address"
        },
        {
          "internalType": "address",
          "name": "_to",
          "type": "address"
        }
      ],
      "name": "withdrawToken",
      "outputs": [],
      "stateMutability": "nonpayable",
      "type": "function"
    },
    {
      "inputs": [
        {
          "internalType": "address",
          "name": "",
          "type": "address"
        }
      ],
      "name": "wrappedToNative",
      "outputs": [
        {
          "internalType": "address",
          "name": "",
          "type": "address"
        }
      ],
      "stateMutability": "view",
      "type": "function"
    }
  ],
  "bytecode": "0x60806040523480156200001157600080fd5b50620000467f8a0a5b64ff97332b87e4e81e95978f778570a2536a919620eca66a65752b679560001b6200019d60201b60201c565b6200007a7f145289dca15688b1c346c49c4a4315715d5a546c0c119c1522caa391871b16ca60001b6200019d60201b60201c565b620000ae7fdac8ba7fbef9449823ccda2b984d93f0b7b7db19a71d18d0063be4b31c03248560001b6200019d60201b60201c565b620000c36000801b33620001a060201b60201c565b620000f77f6a5c6d930d22233e425a3e7a28e5a9006a6136dfe3366f982e614c8be5708a1660001b6200019d60201b60201c565b6200012b7f42d8b6ae55f732100e23709d72e57d989b45d5bd8e21f9ab845244c438c6b90f60001b6200019d60201b60201c565b604051620001399062000303565b604051809103906000f08015801562000156573d6000803e3d6000fd5b50600160006101000a81548173ffffffffffffffffffffffffffffffffffffffff021916908373ffffffffffffffffffffffffffffffffffffffff16021790555062000311565b50565b620001b282826200029160201b60201c565b6200028d57600160008084815260200190815260200160002060000160008373ffffffffffffffffffffffffffffffffffffffff1673ffffffffffffffffffffffffffffffffffffffff16815260200190815260200160002060006101000a81548160ff02191690831515021790555062000232620002fb60201b60201c565b73ffffffffffffffffffffffffffffffffffffffff168173ffffffffffffffffffffffffffffffffffffffff16837f2f8788117e7eff1d82e926ec794901d17c78024a50270940304540a733656f0d60405160405180910390a45b5050565b600080600084815260200190815260200160002060000160008373ffffffffffffffffffffffffffffffffffffffff1673ffffffffffffffffffffffffffffffffffffffff16815260200190815260200160002060009054906101000a900460ff16905092915050565b600033905090565b6156bc806200467683390190565b61435580620003216000396000f3fe608060405234801561001057600080fd5b50600436106101005760003560e01c80639d5777f911610097578063c0499d9a11610066578063c0499d9a146102bd578063c45a0155146102d9578063d547741f146102f7578063e4f7e7201461031357610100565b80639d5777f914610223578063a217fddf1461023f578063a41712b81461025d578063a5e83bcb1461028d57610100565b806336568abe116100d357806336568abe1461019f5780633aeac4e1146101bb5780635e13b815146101d757806391d14854146101f357610100565b806301ffc9a7146101055780632483e71514610135578063248a9ca3146101535780632f2ff15d14610183575b600080fd5b61011f600480360381019061011a9190613aa3565b61032f565b60405161012c9190613ad6565b60405180910390f35b61013d6103a9565b60405161014a9190613ae9565b60405180910390f35b61016d60048036038101906101689190613afa565b6103cd565b60405161017a9190613ae9565b60405180910390f35b61019d60048036038101906101989190613b3b565b6103ec565b005b6101b960048036038101906101b49190613b3b565b61040d565b005b6101d560048036038101906101d09190613b6b565b610490565b005b6101f160048036038101906101ec9190613c4c565b610856565b005b61020d60048036038101906102089190613b3b565b610f35565b60405161021a9190613ad6565b60405180910390f35b61023d60048036038101906102389190613ceb565b610f9f565b005b610247611b3a565b6040516102549190613ae9565b60405180910390f35b61027760048036038101906102729190613d46565b611b41565b6040516102849190613d6d565b60405180910390f35b6102a760048036038101906102a29190613d46565b611b74565b6040516102b49190613d6d565b60405180910390f35b6102d760048036038101906102d29190613d94565b611ba7565b005b6102e1612628565b6040516102ee9190613dd8565b60405180910390f35b610311600480360381019061030c9190613b3b565b61264e565b005b61032d60048036038101906103289190613dff565b61266f565b005b60007f7965db0b000000000000000000000000000000000000000000000000000000007bffffffffffffffffffffffffffffffffffffffffffffffffffffffff1916827bffffffffffffffffffffffffffffffffffffffffffffffffffffffff191614806103a257506103a182613580565b5b9050919050565b7fab4f864e5201b0fde9b5ee3e4cf96384802b0ffdfcf7f9de4699ce21a30afc4f81565b6000806000838152602001908152602001600020600101549050919050565b6103f5826103cd565b6103fe816135ea565b61040883836135fe565b505050565b6104156136de565b73ffffffffffffffffffffffffffffffffffffffff168173ffffffffffffffffffffffffffffffffffffffff1614610482576040517f08c379a000000000000000000000000000000000000000000000000000000000815260040161047990613e96565b60405180910390fd5b61048c82826136e6565b5050565b6104bc7f4aeb3b18d5c55972843ddc2fd94fc0326b7a1386aa47210d9f005edd3898724160001b6137c7565b6104e87fd41d1eb6023e0a822be416b485f4a9f2d87e309a7750d08ef27793d63ee9898560001b6137c7565b6105147f9062c2f5f9112bcf39f4efbd2a09ee41e757bb7a9e8fe46a581694530459e13360001b6137c7565b61053e7fab4f864e5201b0fde9b5ee3e4cf96384802b0ffdfcf7f9de4699ce21a30afc4f33610f35565b6105cc5761056e7f1050011160865f539ef80f801025e0377a33d5231745996e73f0324bf61751b360001b6137c7565b61059a7f5ea7b151ef5e0262cfd68e0c5629de0baddbc4f7b8131b675f55a8398109b27660001b6137c7565b6040517f3e78b92100000000000000000000000000000000000000000000000000000000815260040160405180910390fd5b6105f87fc49c96ea5400f58cc753f61ab649c2030457a997cee9c29d93702d4bfaf6b7fa60001b6137c7565b6106247f47ef06e71803072ada970327d1248e1607fc329b2ce50b083d61f6de44a9354460001b6137c7565b6106507f0cdd78d0a970002f94c64def72aa6cfeab3b3abcd24dc84745db8121825c176760001b6137c7565b61067c7f9905ca586b5f3211b46cd7690a50b95bb66147aa22ac3eb38046bcd334f83e2660001b6137c7565b6106a87f5d16539c6087b6ce0d1c4833b51658b0ccc1ebe2cf1aad0e15ad3d6a67575bcf60001b6137c7565b8173ffffffffffffffffffffffffffffffffffffffff1663a9059cbb828473ffffffffffffffffffffffffffffffffffffffff166370a08231306040518263ffffffff1660e01b81526004016106fe9190613d6d565b602060405180830381865afa15801561071b573d6000803e3d6000fd5b505050506040513d601f19601f8201168201806040525081019061073f9190613efa565b6040518363ffffffff1660e01b815260040161075c929190613f16565b6020604051808303816000875af115801561077b573d6000803e3d6000fd5b505050506040513d601f19601f8201168201806040525081019061079f9190613f44565b506107cc7f6b30051d83aceb3b316ead54c657b476779be3201610a42bbb64f81ae8f2850e60001b6137c7565b6107f87fc8aee4083b7ae2fc66b5c6c9c66f494aa71077d98c28c5c4bf7ff5d913d7c0ee60001b6137c7565b8073ffffffffffffffffffffffffffffffffffffffff168273ffffffffffffffffffffffffffffffffffffffff167fce9ecd720079c00c86716fadb783ea8b0577f02c0f55b98d8a4a86ecdcb7918b60405160405180910390a35050565b856108837f2cd662f6b76a7b34fff82cc640842eaa249583252428aaf5ca18f1aaa369048460001b6137c7565b6108af7fd03d23e102babf2472f901e9e9e22a6ede34e7abca074fad12d95878ee1e516a60001b6137c7565b6108db7fa29287b2c8e8ac78eacf2c3e0d96e1b31acbc4eede84caccb5d6eb0f1b2b78e760001b6137c7565b600073ffffffffffffffffffffffffffffffffffffffff168173ffffffffffffffffffffffffffffffffffffffff160361096d5761093b7f28d600e167be0e17accef68f76ccc8644524efc44fb7e0a8090a18d286415b9160001b6137c7565b6040517f9e1ff14a00000000000000000000000000000000000000000000000000000000815260040160405180910390fd5b6109997f8dd34c1b7afbc62d05248719b70bd22c91f0a70ddfc00f1856e76ada2e5580d360001b6137c7565b6109c57fbb080d6d6515b73f6e65e6f19939d58fc354468e0718b0bb84ba6d5f74f059f960001b6137c7565b856109f27f2cd662f6b76a7b34fff82cc640842eaa249583252428aaf5ca18f1aaa369048460001b6137c7565b610a1e7fd03d23e102babf2472f901e9e9e22a6ede34e7abca074fad12d95878ee1e516a60001b6137c7565b610a4a7fa29287b2c8e8ac78eacf2c3e0d96e1b31acbc4eede84caccb5d6eb0f1b2b78e760001b6137c7565b600073ffffffffffffffffffffffffffffffffffffffff168173ffffffffffffffffffffffffffffffffffffffff1603610adc57610aaa7f28d600e167be0e17accef68f76ccc8644524efc44fb7e0a8090a18d286415b9160001b6137c7565b6040517f9e1ff14a00000000000000000000000000000000000000000000000000000000815260040160405180910390fd5b610b087f8dd34c1b7afbc62d05248719b70bd22c91f0a70ddfc00f1856e76ada2e5580d360001b6137c7565b610b347fbb080d6d6515b73f6e65e6f19939d58fc354468e0718b0bb84ba6d5f74f059f960001b6137c7565b84610b617f6f7f36fc6cd69bb73b8ea2d76b5605758a4e915e6f9d62da107df946e1c18efb60001b6137c7565b610b8d7f5eadf0517d9ca2003a64bef1719c3a60982f59dbcb93a55ab66d1a21159aaba260001b6137c7565b610bb97f186aeee0d022534abe0eb4fcbdc3ae994d7f10c7d5c158d8531dcb915b6aadbc60001b6137c7565b60008103610c1f57610bed7f11f887ca2000f500f81623e1b66ca074fda4354eb520a104b99cca38dfdd925760001b6137c7565b6040517feb9365e700000000000000000000000000000000000000000000000000000000815260040160405180910390fd5b610c4b7f6cc58145d8b65aace8a18a5eeabdd0a3d2547d06c4b4d833f53ccf7848e9a31660001b6137c7565b610c777f63ec5d27cff1d0b49f24f5e04339da26e12f352968130f2b7bbb04258e91e5da60001b6137c7565b610ca37f261986104e8db268e01639dbeb0f9cf4334f9c858a7d0b2797385e627d5d8dee60001b6137c7565b610ccf7f5f9208dda0b47dd5fed921a38a1d084b6ec2f6f11bdc3f6cb72079c1497f8b7060001b6137c7565b610cfb7f02693ede0cfeea366e6874a5ffd086a21d5fe96403ef8ec5f0b6ef6a9300c86260001b6137c7565b60008873ffffffffffffffffffffffffffffffffffffffff166323b872dd8b308a6040518463ffffffff1660e01b8152600401610d3a93929190613f70565b6020604051808303816000875af1158015610d59573d6000803e3d6000fd5b505050506040513d601f19601f82011682018060405250810190610d7d9190613f44565b9050610dab7f7c24fa5a6dcc560aa71266ea658fbfcb75f0a5be431e4f1d54960699e5ee6f9360001b6137c7565b610dd77fa8ce1c30c02c1a921554f939c24dcf13b52e4f85b0d4d7f0b39d8b331838c5f460001b6137c7565b80610e3a57610e087ff08f2cb23b4ee8f7afe4b06a555a1e65260114d4e84fb09e974e215620ef0b1b60001b6137c7565b6040517f264a06a500000000000000000000000000000000000000000000000000000000815260040160405180910390fd5b610e667f91fd0c3b6974de6c87bdf3c9dd4c2183725d33c54fde90c0e83b51a73612556460001b6137c7565b610e927fa331ad3e59bd824d9de890ffa28326082f1878103f6405afef59fa866171caab60001b6137c7565b610ebe7f918f916d5caf62c46bad0fb18e329f9a13d87d8974754ef66f49927d3d7f3a0760001b6137c7565b84604051610ecc9190613fd3565b6040518091039020878b73ffffffffffffffffffffffffffffffffffffffff167f671a552161bc1823faa6a095044496ad95ca27b356d70b106abfe3ad14bde7c68c468d8c604051610f21949392919061401f565b60405180910390a450505050505050505050565b600080600084815260200190815260200160002060000160008373ffffffffffffffffffffffffffffffffffffffff1673ffffffffffffffffffffffffffffffffffffffff16815260200190815260200160002060009054906101000a900460ff16905092915050565b81610fcc7f6f7f36fc6cd69bb73b8ea2d76b5605758a4e915e6f9d62da107df946e1c18efb60001b6137c7565b610ff87f5eadf0517d9ca2003a64bef1719c3a60982f59dbcb93a55ab66d1a21159aaba260001b6137c7565b6110247f186aeee0d022534abe0eb4fcbdc3ae994d7f10c7d5c158d8531dcb915b6aadbc60001b6137c7565b6000810361108a576110587f11f887ca2000f500f81623e1b66ca074fda4354eb520a104b99cca38dfdd925760001b6137c7565b6040517feb9365e700000000000000000000000000000000000000000000000000000000815260040160405180910390fd5b6110b67f6cc58145d8b65aace8a18a5eeabdd0a3d2547d06c4b4d833f53ccf7848e9a31660001b6137c7565b6110e27f63ec5d27cff1d0b49f24f5e04339da26e12f352968130f2b7bbb04258e91e5da60001b6137c7565b8161110f7f2cd662f6b76a7b34fff82cc640842eaa249583252428aaf5ca18f1aaa369048460001b6137c7565b61113b7fd03d23e102babf2472f901e9e9e22a6ede34e7abca074fad12d95878ee1e516a60001b6137c7565b6111677fa29287b2c8e8ac78eacf2c3e0d96e1b31acbc4eede84caccb5d6eb0f1b2b78e760001b6137c7565b600073ffffffffffffffffffffffffffffffffffffffff168173ffffffffffffffffffffffffffffffffffffffff16036111f9576111c77f28d600e167be0e17accef68f76ccc8644524efc44fb7e0a8090a18d286415b9160001b6137c7565b6040517f9e1ff14a00000000000000000000000000000000000000000000000000000000815260040160405180910390fd5b6112257f8dd34c1b7afbc62d05248719b70bd22c91f0a70ddfc00f1856e76ada2e5580d360001b6137c7565b6112517fbb080d6d6515b73f6e65e6f19939d58fc354468e0718b0bb84ba6d5f74f059f960001b6137c7565b61127d7f4aeb3b18d5c55972843ddc2fd94fc0326b7a1386aa47210d9f005edd3898724160001b6137c7565b6112a97fd41d1eb6023e0a822be416b485f4a9f2d87e309a7750d08ef27793d63ee9898560001b6137c7565b6112d57f9062c2f5f9112bcf39f4efbd2a09ee41e757bb7a9e8fe46a581694530459e13360001b6137c7565b6112ff7fab4f864e5201b0fde9b5ee3e4cf96384802b0ffdfcf7f9de4699ce21a30afc4f33610f35565b61138d5761132f7f1050011160865f539ef80f801025e0377a33d5231745996e73f0324bf61751b360001b6137c7565b61135b7f5ea7b151ef5e0262cfd68e0c5629de0baddbc4f7b8131b675f55a8398109b27660001b6137c7565b6040517f3e78b92100000000000000000000000000000000000000000000000000000000815260040160405180910390fd5b6113b97fc49c96ea5400f58cc753f61ab649c2030457a997cee9c29d93702d4bfaf6b7fa60001b6137c7565b6113e57f47ef06e71803072ada970327d1248e1607fc329b2ce50b083d61f6de44a9354460001b6137c7565b6114117fe587ecf662c7591aa590b87de06697ff259cc28533d07f392bdd19f570d496d660001b6137c7565b61143d7f2fe076c1534ce6cab4f86b2d412a2b1fdb3b641fecc0e268a948ab1080ca59fa60001b6137c7565b6114697ffad82d412d7d7d3c83d605e65002c92210b8187619a3c20e785a8103e23f001860001b6137c7565b6040518060200160405280600081525080519060200120858051906020012003611517576114b97fcc4652056999a981d3c57f01fd6568b9527675fae021f90258315dceed25832e60001b6137c7565b6114e57fac89af73e16e22fc8959205baf15e4516a9d71f8407bd250e8a48c0e5cb7770860001b6137c7565b6040517f53da02f600000000000000000000000000000000000000000000000000000000815260040160405180910390fd5b6115437f65a67be25796c4524f0df0c9e6d1fd2a4f09aff21bb2ef6ff3fad64125ec3ed560001b6137c7565b61156f7f77147ffa73f10cd49eaacea84b8844bad3ea362267346becb363978f0775f71460001b6137c7565b61159b7fac702a17a2c267aabb20c88848f50f74761689a5e63315add0b7dc4082d6f35360001b6137c7565b6000600160009054906101000a900473ffffffffffffffffffffffffffffffffffffffff1673ffffffffffffffffffffffffffffffffffffffff166318c04bbb876040518263ffffffff1660e01b81526004016115f89190614065565b602060405180830381865afa158015611615573d6000803e3d6000fd5b505050506040513d601f19601f820116820180604052508101906116399190614080565b90506116677f7d821afd8611522e40b17f3b19adbfd6b7c756d83bda2ee03be0e43d3699ad5b60001b6137c7565b6116937f06921aa4dadcd9f3367db86a02fcb412a6419fb60a14be1b458a0fd537547a7060001b6137c7565b600073ffffffffffffffffffffffffffffffffffffffff168173ffffffffffffffffffffffffffffffffffffffff1603611751576116f37fe6c7345e1333c20f1cf766684d2a63c8c4d94a902ecfac99298980b5a47573db60001b6137c7565b61171f7f5e2818c89c4ecc37e36c3b5f52e781dc04ea4b441e65384638d716ffe2bba92b60001b6137c7565b6040517fcd659d9e00000000000000000000000000000000000000000000000000000000815260040160405180910390fd5b61177d7fd98340a4794e51255c0ce8fff107697c5d5da24b97caf6031512e12b233b267660001b6137c7565b6117a97ff83f273d66572b34be39c68467ccaaf7faf97ee97fb729a0d63063ecd5374dac60001b6137c7565b6117d57f720d535584a7a139f6539c82558c8b9665fd87dfe35b22d5a9071fec53c21a5660001b6137c7565b6000600160009054906101000a900473ffffffffffffffffffffffffffffffffffffffff1673ffffffffffffffffffffffffffffffffffffffff16630403185288336040518363ffffffff1660e01b81526004016118349291906140a7565b602060405180830381865afa158015611851573d6000803e3d6000fd5b505050506040513d601f19601f820116820180604052508101906118759190613efa565b90506118a37f029c8e8ba8a95546ac0fae60a942a42ca778b78fde5b69f6dfd2df3617fb169860001b6137c7565b6118cf7f860d3e187aa89b71f683c5f13c9b4734a05afb689d4f06264e66409ea03d4b1b60001b6137c7565b85811015611961576119037f0307e6bc306054a6a9cf8ceb4b3bd73c648e681c321dbfafb103ee484b8344d760001b6137c7565b61192f7fede01e4a7948be7c8cac13ee1fd28e7c6ca81eba617276f845c558e84cd73de560001b6137c7565b6040517f2d434d5600000000000000000000000000000000000000000000000000000000815260040160405180910390fd5b61198d7f72cf2fd7d09daabb9d05e6032a178fd5ce7fe0b9813d6af8c52d76b12e92338060001b6137c7565b6119b97fc32939f0011e4175706203574a77c968fb331bafe07b5bcedf448172e9b2c7c060001b6137c7565b6119e57fd2e7328d4bd240d7d7101a8d5f73f0e2ac10dfaf51406dff2a9b675e61ebbcf060001b6137c7565b600160009054906101000a900473ffffffffffffffffffffffffffffffffffffffff1673ffffffffffffffffffffffffffffffffffffffff1663f6b911bc8387896040518463ffffffff1660e01b8152600401611a4493929190613f70565b6020604051808303816000875af1158015611a63573d6000803e3d6000fd5b505050506040513d601f19601f82011682018060405250810190611a879190613f44565b50611ab47f670893cf5eb3951f567af9b9b006aac7cf7171646c1e79b83d76a4992020903a60001b6137c7565b611ae07f60911be698d40ae8877ab5fe2ddf52d5c7bc45f6ba2a32ff4681889406f1d11960001b6137c7565b468573ffffffffffffffffffffffffffffffffffffffff167f4cc93d8a20584734f5de25b7b8de5edf068a15945a0b1f8ad02791b60712b4e88489604051611b29929190613f16565b60405180910390a350505050505050565b6000801b81565b60026020528060005260406000206000915054906101000a900473ffffffffffffffffffffffffffffffffffffffff1681565b60036020528060005260406000206000915054906101000a900473ffffffffffffffffffffffffffffffffffffffff1681565b82611bd47f2cd662f6b76a7b34fff82cc640842eaa249583252428aaf5ca18f1aaa369048460001b6137c7565b611c007fd03d23e102babf2472f901e9e9e22a6ede34e7abca074fad12d95878ee1e516a60001b6137c7565b611c2c7fa29287b2c8e8ac78eacf2c3e0d96e1b31acbc4eede84caccb5d6eb0f1b2b78e760001b6137c7565b600073ffffffffffffffffffffffffffffffffffffffff168173ffffffffffffffffffffffffffffffffffffffff1603611cbe57611c8c7f28d600e167be0e17accef68f76ccc8644524efc44fb7e0a8090a18d286415b9160001b6137c7565b6040517f9e1ff14a00000000000000000000000000000000000000000000000000000000815260040160405180910390fd5b611cea7f8dd34c1b7afbc62d05248719b70bd22c91f0a70ddfc00f1856e76ada2e5580d360001b6137c7565b611d167fbb080d6d6515b73f6e65e6f19939d58fc354468e0718b0bb84ba6d5f74f059f960001b6137c7565b82611d437f2cd662f6b76a7b34fff82cc640842eaa249583252428aaf5ca18f1aaa369048460001b6137c7565b611d6f7fd03d23e102babf2472f901e9e9e22a6ede34e7abca074fad12d95878ee1e516a60001b6137c7565b611d9b7fa29287b2c8e8ac78eacf2c3e0d96e1b31acbc4eede84caccb5d6eb0f1b2b78e760001b6137c7565b600073ffffffffffffffffffffffffffffffffffffffff168173ffffffffffffffffffffffffffffffffffffffff1603611e2d57611dfb7f28d600e167be0e17accef68f76ccc8644524efc44fb7e0a8090a18d286415b9160001b6137c7565b6040517f9e1ff14a00000000000000000000000000000000000000000000000000000000815260040160405180910390fd5b611e597f8dd34c1b7afbc62d05248719b70bd22c91f0a70ddfc00f1856e76ada2e5580d360001b6137c7565b611e857fbb080d6d6515b73f6e65e6f19939d58fc354468e0718b0bb84ba6d5f74f059f960001b6137c7565b82611eb27f6f7f36fc6cd69bb73b8ea2d76b5605758a4e915e6f9d62da107df946e1c18efb60001b6137c7565b611ede7f5eadf0517d9ca2003a64bef1719c3a60982f59dbcb93a55ab66d1a21159aaba260001b6137c7565b611f0a7f186aeee0d022534abe0eb4fcbdc3ae994d7f10c7d5c158d8531dcb915b6aadbc60001b6137c7565b60008103611f7057611f3e7f11f887ca2000f500f81623e1b66ca074fda4354eb520a104b99cca38dfdd925760001b6137c7565b6040517feb9365e700000000000000000000000000000000000000000000000000000000815260040160405180910390fd5b611f9c7f6cc58145d8b65aace8a18a5eeabdd0a3d2547d06c4b4d833f53ccf7848e9a31660001b6137c7565b611fc87f63ec5d27cff1d0b49f24f5e04339da26e12f352968130f2b7bbb04258e91e5da60001b6137c7565b611ff47f4aeb3b18d5c55972843ddc2fd94fc0326b7a1386aa47210d9f005edd3898724160001b6137c7565b6120207fd41d1eb6023e0a822be416b485f4a9f2d87e309a7750d08ef27793d63ee9898560001b6137c7565b61204c7f9062c2f5f9112bcf39f4efbd2a09ee41e757bb7a9e8fe46a581694530459e13360001b6137c7565b6120767fab4f864e5201b0fde9b5ee3e4cf96384802b0ffdfcf7f9de4699ce21a30afc4f33610f35565b612104576120a67f1050011160865f539ef80f801025e0377a33d5231745996e73f0324bf61751b360001b6137c7565b6120d27f5ea7b151ef5e0262cfd68e0c5629de0baddbc4f7b8131b675f55a8398109b27660001b6137c7565b6040517f3e78b92100000000000000000000000000000000000000000000000000000000815260040160405180910390fd5b6121307fc49c96ea5400f58cc753f61ab649c2030457a997cee9c29d93702d4bfaf6b7fa60001b6137c7565b61215c7f47ef06e71803072ada970327d1248e1607fc329b2ce50b083d61f6de44a9354460001b6137c7565b6121887fe206d64e791ee8e811b15f874a534f77b504fc18287d62017b0ab60a9772e53360001b6137c7565b6121b47fc722dbec04b36830b9b619c2b770f70c29c8f04650993fb4ced5fe97e5cd034e60001b6137c7565b6121e07fe95255858d91dfd62667c48427c379c18cb241f2e0e4e5168ccee2dbdc880f1560001b6137c7565b6000600360008773ffffffffffffffffffffffffffffffffffffffff1673ffffffffffffffffffffffffffffffffffffffff16815260200190815260200160002060009054906101000a900473ffffffffffffffffffffffffffffffffffffffff1690506122707fbe26a2e381e012025cb2feae7e7ad6a47725fcfa5e65e0eabeff5bcd0add2eb160001b6137c7565b61229c7f421639121655dce63aebe1f121086cb35f2a9f3599266c01d2063aa7404449be60001b6137c7565b600073ffffffffffffffffffffffffffffffffffffffff168173ffffffffffffffffffffffffffffffffffffffff160361235a576122fc7f1cf3b89020a7e3e7bc6821c10375bf64ade746651994e330c9d3aad5034d289c60001b6137c7565b6123287f7ae6fe38a6ceeeff410cd5df6e320e9c4294470af239d984ced03ce4b6d1310660001b6137c7565b6040517fcd659d9e00000000000000000000000000000000000000000000000000000000815260040160405180910390fd5b6123867f3c270b81017c1c134a76459620fc3fce3def02ebb8196bc15efbf12401a4e34a60001b6137c7565b6123b27fe4ad92151a203ee215cc36dd62eb247073ea4f238b886c1e573b4d8739a8364960001b6137c7565b6123de7f8ae0fa5a1167583b360f7039c6a2c0993054ef24a621f7aa6aa52652f50a2fc660001b6137c7565b60008173ffffffffffffffffffffffffffffffffffffffff1663a9059cbb89886040518363ffffffff1660e01b815260040161241b929190613f16565b6020604051808303816000875af115801561243a573d6000803e3d6000fd5b505050506040513d601f19601f8201168201806040525081019061245e9190613f44565b905061248c7f0e466e1a19d1c6a89b82942761cbf01b211f206b5e411d8e7e9d50894b921db860001b6137c7565b6124b87f33f34d499ce8658726f999e6e9491abdb2ba5f7ec21ab025f0d15cf1e188402d60001b6137c7565b80612547576124e97f91a1bd3ada8bf6e2551b895acd27bb43ca05a2efe0b9da55e8b7d3cf6364b66d60001b6137c7565b6125157ff7455ed5c45dad1140bff2962386df8601e90cc5da725ded05f68111ebf2584160001b6137c7565b6040517fb1d585a200000000000000000000000000000000000000000000000000000000815260040160405180910390fd5b6125737f15404596dc84235729d81ee0d1cbc3ecfcba0431e26d17a7bf29e09b0b589c5560001b6137c7565b61259f7f888c40e561473cb1c0bcd9a4d232e8ddb5752f0f1555444eafae97addd6cd9c360001b6137c7565b6125cb7fb13ae8de91b1cf4e5e5a516f4613eaf915143df3298422b859f0c3edcf99723760001b6137c7565b468873ffffffffffffffffffffffffffffffffffffffff167f07dec890345a078508063dcff6a4e637daabf894ef4ceb1b80c8ca8c9c522956848a8a60405161261693929190613f70565b60405180910390a35050505050505050565b600160009054906101000a900473ffffffffffffffffffffffffffffffffffffffff1681565b612657826103cd565b612660816135ea565b61266a83836136e6565b505050565b8261269c7f2cd662f6b76a7b34fff82cc640842eaa249583252428aaf5ca18f1aaa369048460001b6137c7565b6126c87fd03d23e102babf2472f901e9e9e22a6ede34e7abca074fad12d95878ee1e516a60001b6137c7565b6126f47fa29287b2c8e8ac78eacf2c3e0d96e1b31acbc4eede84caccb5d6eb0f1b2b78e760001b6137c7565b600073ffffffffffffffffffffffffffffffffffffffff168173ffffffffffffffffffffffffffffffffffffffff1603612786576127547f28d600e167be0e17accef68f76ccc8644524efc44fb7e0a8090a18d286415b9160001b6137c7565b6040517f9e1ff14a00000000000000000000000000000000000000000000000000000000815260040160405180910390fd5b6127b27f8dd34c1b7afbc62d05248719b70bd22c91f0a70ddfc00f1856e76ada2e5580d360001b6137c7565b6127de7fbb080d6d6515b73f6e65e6f19939d58fc354468e0718b0bb84ba6d5f74f059f960001b6137c7565b8261280b7f2cd662f6b76a7b34fff82cc640842eaa249583252428aaf5ca18f1aaa369048460001b6137c7565b6128377fd03d23e102babf2472f901e9e9e22a6ede34e7abca074fad12d95878ee1e516a60001b6137c7565b6128637fa29287b2c8e8ac78eacf2c3e0d96e1b31acbc4eede84caccb5d6eb0f1b2b78e760001b6137c7565b600073ffffffffffffffffffffffffffffffffffffffff168173ffffffffffffffffffffffffffffffffffffffff16036128f5576128c37f28d600e167be0e17accef68f76ccc8644524efc44fb7e0a8090a18d286415b9160001b6137c7565b6040517f9e1ff14a00000000000000000000000000000000000000000000000000000000815260040160405180910390fd5b6129217f8dd34c1b7afbc62d05248719b70bd22c91f0a70ddfc00f1856e76ada2e5580d360001b6137c7565b61294d7fbb080d6d6515b73f6e65e6f19939d58fc354468e0718b0bb84ba6d5f74f059f960001b6137c7565b8261297a7f6f7f36fc6cd69bb73b8ea2d76b5605758a4e915e6f9d62da107df946e1c18efb60001b6137c7565b6129a67f5eadf0517d9ca2003a64bef1719c3a60982f59dbcb93a55ab66d1a21159aaba260001b6137c7565b6129d27f186aeee0d022534abe0eb4fcbdc3ae994d7f10c7d5c158d8531dcb915b6aadbc60001b6137c7565b60008103612a3857612a067f11f887ca2000f500f81623e1b66ca074fda4354eb520a104b99cca38dfdd925760001b6137c7565b6040517feb9365e700000000000000000000000000000000000000000000000000000000815260040160405180910390fd5b612a647f6cc58145d8b65aace8a18a5eeabdd0a3d2547d06c4b4d833f53ccf7848e9a31660001b6137c7565b612a907f63ec5d27cff1d0b49f24f5e04339da26e12f352968130f2b7bbb04258e91e5da60001b6137c7565b612abc7f4aeb3b18d5c55972843ddc2fd94fc0326b7a1386aa47210d9f005edd3898724160001b6137c7565b612ae87fd41d1eb6023e0a822be416b485f4a9f2d87e309a7750d08ef27793d63ee9898560001b6137c7565b612b147f9062c2f5f9112bcf39f4efbd2a09ee41e757bb7a9e8fe46a581694530459e13360001b6137c7565b612b3e7fab4f864e5201b0fde9b5ee3e4cf96384802b0ffdfcf7f9de4699ce21a30afc4f33610f35565b612bcc57612b6e7f1050011160865f539ef80f801025e0377a33d5231745996e73f0324bf61751b360001b6137c7565b612b9a7f5ea7b151ef5e0262cfd68e0c5629de0baddbc4f7b8131b675f55a8398109b27660001b6137c7565b6040517f3e78b92100000000000000000000000000000000000000000000000000000000815260040160405180910390fd5b612bf87fc49c96ea5400f58cc753f61ab649c2030457a997cee9c29d93702d4bfaf6b7fa60001b6137c7565b612c247f47ef06e71803072ada970327d1248e1607fc329b2ce50b083d61f6de44a9354460001b6137c7565b612c507f6b17f857b3f76b3214ee94a351204b79d53c0319519b7ffb1e9c4755700ce90160001b6137c7565b612c7c7fc54484afef3379c9acfd1e489f53aa0b8f64d917191201dc62db4ba99e22583160001b6137c7565b612ca87f020b7a9d1e59a6e2721fee563053f1b17ab8172952893c9825f8483165ec96f060001b6137c7565b6040518060200160405280600081525080519060200120888051906020012003612d5657612cf87fc95c42c8f29c1fa91d37acc8dbe9b464e49a071137e4bd283f40fb12b05ca87960001b6137c7565b612d247f6dbad16552046e9b03a73e43dc444f0538a860e887ffa1cf3f85aab6d247ea1460001b6137c7565b6040517f53da02f600000000000000000000000000000000000000000000000000000000815260040160405180910390fd5b612d827f0152346dc9575d95c8f06dafa1a089845484d442e5cb3d709b320759a1ea676460001b6137c7565b612dae7ff2eb2a2045380c9e74a7fa4a5131256fc166e3cf73a19c867c37b328d2f8026460001b6137c7565b612dda7f78396214cdea946d8b6eda0105cae5c779c3caef83848279e4f66af7ff80648260001b6137c7565b6040518060200160405280600081525080519060200120878051906020012003612e8857612e2a7fa3dfa1f18959ede316a1edc7c3e00f2e8d1fd84b1f90cb7395838a3f5ba0a3b060001b6137c7565b612e567f4470483c49b032a092dc961663fc52693f0a9a1830562b3cd5b45049dcaad02c60001b6137c7565b6040517f41c14c8b00000000000000000000000000000000000000000000000000000000815260040160405180910390fd5b612eb47ff264083ed0fda01bb3540a9649f56129cd058e786d02e566cab639531c4860ad60001b6137c7565b612ee07f25042c3fbf8f50bc07ee4eea44f75060414779109458d0f6db82d4c55cffa9f860001b6137c7565b612f0c7f849b0018d6e07e7f1228c7da8d2e7f8dee3ebb14114664ee0eef274662b2bd5760001b6137c7565b600088604051602001612f1f91906140df565b6040516020818303038152906040529050612f5c7f54f7e6460a757a8725dd972e9eca07445018aea2125d289ab8ad4bb2f014b52e60001b6137c7565b612f887f53f2100248c203955bae4d0b0804ef428b27155ffa35537cc89e29f66b73f52260001b6137c7565b6000600160009054906101000a900473ffffffffffffffffffffffffffffffffffffffff1673ffffffffffffffffffffffffffffffffffffffff166318c04bbb836040518263ffffffff1660e01b8152600401612fe59190614065565b602060405180830381865afa158015613002573d6000803e3d6000fd5b505050506040513d601f19601f820116820180604052508101906130269190614080565b90506130547f6bfe59e89409d9b8590d895abd46f8703891ee4d31b1f1f8c8253497efbaef3960001b6137c7565b6130807f749260e4fe57b62d5026c16499efac08f558c66b9db02477cdf8cefe86d3b3c260001b6137c7565b600073ffffffffffffffffffffffffffffffffffffffff168173ffffffffffffffffffffffffffffffffffffffff160361338b576130e07f8c6db3c2a714ad661bdc9c83580ed110903527438b276c833d5911126324aa2760001b6137c7565b61310c7f4faee16fba8f936467822608ba50e4781a6296c6041cbb246013ff080ed19b6060001b6137c7565b6131387f91b57daab452c7017fc09546d59c3eda998bfa274ffabfee8a880991ce895ede60001b6137c7565b600160009054906101000a900473ffffffffffffffffffffffffffffffffffffffff1673ffffffffffffffffffffffffffffffffffffffff1663518f58c58a846040518363ffffffff1660e01b8152600401613195929190614126565b6020604051808303816000875af11580156131b4573d6000803e3d6000fd5b505050506040513d601f19601f820116820180604052508101906131d89190614080565b90506132067febf3e19e75d6a71ca6e5e23eac615bb48169c0f9e078d21c85d5515bee6b27cb60001b6137c7565b6132327f7c91052045bb5711bc39bed254952a8398652d8b8b2cab8c81fa937c6560b20c60001b6137c7565b80600260008973ffffffffffffffffffffffffffffffffffffffff1673ffffffffffffffffffffffffffffffffffffffff16815260200190815260200160002060006101000a81548173ffffffffffffffffffffffffffffffffffffffff021916908373ffffffffffffffffffffffffffffffffffffffff1602179055506132dc7fdc65e42b2e6d5d65620de077ec82ac9dfb5d79d6ad1329cdf48933fa7837e94860001b6137c7565b6133087fd4b21e5e6b60f6b0606d394973390254deb41a66e07f5d22a343c311ba2a11cb60001b6137c7565b86600360008373ffffffffffffffffffffffffffffffffffffffff1673ffffffffffffffffffffffffffffffffffffffff16815260200190815260200160002060006101000a81548173ffffffffffffffffffffffffffffffffffffffff021916908373ffffffffffffffffffffffffffffffffffffffff1602179055506133b8565b6133b77fb588659b3554c1df4f730e298783f6e6125e30ab6286b2e48624ef182db4c2da60001b6137c7565b5b6133e47feb7ddd73e007d76b48caea3d75dea4cd4da1eb7697d0fe516f0ce7261b2d6f9f60001b6137c7565b6134107f3e0fd3f077d5c94f7790d83837dfebacf07a8571113bb444db320581e618029e60001b6137c7565b600160009054906101000a900473ffffffffffffffffffffffffffffffffffffffff1673ffffffffffffffffffffffffffffffffffffffff16637e8816b9838a896040518463ffffffff1660e01b815260040161346f93929190614155565b6020604051808303816000875af115801561348e573d6000803e3d6000fd5b505050506040513d601f19601f820116820180604052508101906134b29190613f44565b506134df7f0feb687809f0b85fb76cf421ae53a20386b959d345b057a27c8bf732529d140260001b6137c7565b61350b7f4ed6ccc3aa0233c2c84705600da6ee43ff99e812ff67ed6257a81de59a9d604360001b6137c7565b816040516135199190613fd3565b6040518091039020468973ffffffffffffffffffffffffffffffffffffffff167f41afc5c250410dbbd79e102a9496843e3907adda6e9fa6259cd8f12971517144848a8e60405161356c93929190614194565b60405180910390a450505050505050505050565b60007f01ffc9a7000000000000000000000000000000000000000000000000000000007bffffffffffffffffffffffffffffffffffffffffffffffffffffffff1916827bffffffffffffffffffffffffffffffffffffffffffffffffffffffff1916149050919050565b6135fb816135f66136de565b6137ca565b50565b6136088282610f35565b6136da57600160008084815260200190815260200160002060000160008373ffffffffffffffffffffffffffffffffffffffff1673ffffffffffffffffffffffffffffffffffffffff16815260200190815260200160002060006101000a81548160ff02191690831515021790555061367f6136de565b73ffffffffffffffffffffffffffffffffffffffff168173ffffffffffffffffffffffffffffffffffffffff16837f2f8788117e7eff1d82e926ec794901d17c78024a50270940304540a733656f0d60405160405180910390a45b5050565b600033905090565b6136f08282610f35565b156137c357600080600084815260200190815260200160002060000160008373ffffffffffffffffffffffffffffffffffffffff1673ffffffffffffffffffffffffffffffffffffffff16815260200190815260200160002060006101000a81548160ff0219169083151502179055506137686136de565b73ffffffffffffffffffffffffffffffffffffffff168173ffffffffffffffffffffffffffffffffffffffff16837ff6391f5c32d9c69d2a47ea670b442974b53935d1edc7fd64eb21e047a839171b60405160405180910390a45b5050565b50565b6137d48282610f35565b613863576137f98173ffffffffffffffffffffffffffffffffffffffff166014613867565b6138078360001c6020613867565b6040516020016138189291906141d3565b6040516020818303038152906040526040517f08c379a000000000000000000000000000000000000000000000000000000000815260040161385a9190614065565b60405180910390fd5b5050565b60606000600283600261387a9190614270565b6138849190614292565b67ffffffffffffffff81111561389d5761389c613ba6565b5b6040519080825280601f01601f1916602001820160405280156138cf5781602001600182028036833780820191505090505b5090507f300000000000000000000000000000000000000000000000000000000000000081600081518110613907576139066142b0565b5b60200101907effffffffffffffffffffffffffffffffffffffffffffffffffffffffffffff1916908160001a9053507f78000000000000000000000000000000000000000000000000000000000000008160018151811061396b5761396a6142b0565b5b60200101907effffffffffffffffffffffffffffffffffffffffffffffffffffffffffffff1916908160001a905350600060018460026139ab9190614270565b6139b59190614292565b90505b6001811115613a55577f3031323334353637383961626364656600000000000000000000000000000000600f8616601081106139f7576139f66142b0565b5b1a60f81b828281518110613a0e57613a0d6142b0565b5b60200101907effffffffffffffffffffffffffffffffffffffffffffffffffffffffffffff1916908160001a905350600485901c945080613a4e906142c6565b90506139b8565b5060008414613a99576040517f08c379a0000000000000000000000000000000000000000000000000000000008152600401613a90906142e2565b60405180910390fd5b8091505092915050565b600060208284031215613ab557600080fd5b813563ffffffff60e01b81168114613acc57600080fd5b8091505092915050565b6000602082019050821515825292915050565b600060208201905082825292915050565b600060208284031215613b0c57600080fd5b8135905092915050565b73ffffffffffffffffffffffffffffffffffffffff81168114613b3857600080fd5b50565b60008060408385031215613b4e57600080fd5b823591506020830135613b6081613b16565b809150509250929050565b60008060408385031215613b7e57600080fd5b8235613b8981613b16565b809250506020830135613b9b81613b16565b809150509250929050565b634e487b7160e01b600052604160045260246000fd5b600082601f830112613bcd57600080fd5b813567ffffffffffffffff80821115613be957613be8613ba6565b5b601f1960405181603f83601f8701160116810191508082108383111715613c1357613c12613ba6565b5b81604052838152866020858801011115613c2c57600080fd5b836020870160208301376000602085830101528094505050505092915050565b60008060008060008060c08789031215613c6557600080fd5b8635613c7081613b16565b809650506020870135613c8281613b16565b809550506040870135935060608701359250608087013567ffffffffffffffff80821115613caf57600080fd5b613cbb8a838b01613bbc565b935060a0890135915080821115613cd157600080fd5b50613cde89828a01613bbc565b9150509295509295509295565b600080600060608486031215613d0057600080fd5b833567ffffffffffffffff811115613d1757600080fd5b613d2386828701613bbc565b935050602084013591506040840135613d3b81613b16565b809150509250925092565b600060208284031215613d5857600080fd5b8135613d6381613b16565b8091505092915050565b600060208201905073ffffffffffffffffffffffffffffffffffffffff8316825292915050565b600080600060608486031215613da957600080fd5b8335613db481613b16565b809350506020840135613dc681613b16565b80925050604084013590509250925092565b600060208201905073ffffffffffffffffffffffffffffffffffffffff8316825292915050565b600080600080600060a08688031215613e1757600080fd5b853567ffffffffffffffff80821115613e2f57600080fd5b613e3b89838a01613bbc565b96506020880135915080821115613e5157600080fd5b50613e5e88828901613bbc565b9450506040860135613e6f81613b16565b809350506060860135613e8181613b16565b80925050608086013590509295509295909350565b60208152602f60208201527f416363657373436f6e74726f6c3a2063616e206f6e6c792072656e6f756e636560408201527f20726f6c657320666f722073656c66000000000000000000000000000000000060608201526000608082019050919050565b600060208284031215613f0c57600080fd5b8151905092915050565b600060408201905073ffffffffffffffffffffffffffffffffffffffff841682528260208301529392505050565b600060208284031215613f5657600080fd5b81518015158114613f6657600080fd5b8091505092915050565b600060608201905073ffffffffffffffffffffffffffffffffffffffff8086168352808516602084015250826040830152949350505050565b60005b83811015613fc7578082015181840152602081019050613fac565b50600083830152505050565b60008251613fe5818460208701613fa9565b80830191505092915050565b60008151808452614009816020860160208601613fa9565b6020601f19601f83011685010191505092915050565b73ffffffffffffffffffffffffffffffffffffffff8516815283602082015282604082015260806060820152600061405a6080830184613ff1565b905095945050505050565b6020815260006140786020830184613ff1565b905092915050565b60006020828403121561409257600080fd5b815161409d81613b16565b8091505092915050565b6040815260006140ba6040830185613ff1565b905073ffffffffffffffffffffffffffffffffffffffff831660208301529392505050565b7f5700000000000000000000000000000000000000000000000000000000000000815260008251614117816001850160208701613fa9565b60018184010191505092915050565b6040815260006141396040830185613ff1565b828103602084015261414b8185613ff1565b9150509392505050565b6060815260006141686060830186613ff1565b905073ffffffffffffffffffffffffffffffffffffffff84166020830152826040830152949350505050565b73ffffffffffffffffffffffffffffffffffffffff841681528260208201526060604082015260006141c96060830184613ff1565b9050949350505050565b7f416363657373436f6e74726f6c3a206163636f756e742000000000000000000081526000835161420b816017850160208801613fa9565b80830190507f206973206d697373696e6720726f6c652000000000000000000000000000000060178201528351614249816028840160208801613fa9565b602881830101925050509392505050565b634e487b7160e01b600052601160045260246000fd5b60008282029050818104831482151761428c5761428b61425a565b5b92915050565b60008282019050808211156142aa576142a961425a565b5b92915050565b634e487b7160e01b600052603260045260246000fd5b6000816142d6576142d561425a565b5b60001982019050919050565b602081526020808201527f537472696e67733a20686578206c656e67746820696e73756666696369656e746040820152600060608201905091905056fea26469706673582212203e0892f72570231a0907630fd3b35bf4847438a1773ec0f61658cb93f00fbd1b64736f6c6343000811003360806040523480156200001157600080fd5b5062000032620000266200003860201b60201c565b6200004060201b60201c565b62000104565b600033905090565b60008060009054906101000a900473ffffffffffffffffffffffffffffffffffffffff169050816000806101000a81548173ffffffffffffffffffffffffffffffffffffffff021916908373ffffffffffffffffffffffffffffffffffffffff1602179055508173ffffffffffffffffffffffffffffffffffffffff168173ffffffffffffffffffffffffffffffffffffffff167f8be0079c531659141344cd1fd0a4f28419497f9722a3daafe3b4186f6b6457e060405160405180910390a35050565b6155a880620001146000396000f3fe60806040523480156200001157600080fd5b5060043610620000ac5760003560e01c80637e8816b9116200006f5780637e8816b914620001955780638da5cb5b14620001cb578063d3e2a0ca14620001ed578063f2fde38b1462000223578063f6b911bc146200024357620000ac565b80630403185214620000b157806318c04bbb14620000e7578063518f58c5146200011d578063640df6441462000153578063715018a61462000189575b600080fd5b620000cf6004803603810190620000c9919062002898565b62000279565b604051620000de9190620028ec565b60405180910390f35b620001056004803603810190620000ff9190620028fd565b62000896565b6040516200011491906200293f565b60405180910390f35b6200013b600480360381019062000135919062002966565b62000b05565b6040516200014a91906200293f565b60405180910390f35b6200017160048036038101906200016b9190620028fd565b6200129a565b604051620001809190620028ec565b60405180910390f35b620001936200170b565b005b620001b36004803603810190620001ad9190620029d1565b62001723565b604051620001c2919062002a2e565b60405180910390f35b620001d562001f1b565b604051620001e491906200293f565b60405180910390f35b6200020b6004803603810190620002059190620028fd565b62001f44565b6040516200021a91906200293f565b60405180910390f35b6200024160048036038101906200023b919062002a41565b62001f8d565b005b6200026160048036038101906200025b919062002a67565b62002017565b60405162000270919062002a2e565b60405180910390f35b600082620002aa7fd87716b7a8c391156e4dd53a776dcf0e1ee2dcffc3e55e774d5b558184f9418d60001b6200265a565b620002d87fb50dbc6c6b21bb255154b45d90cac406c0746f072b9bbcfab25ada2bb258e17860001b6200265a565b620003067f76033ee0e3ed30adecdf4c2894ed334beb5f49790a0a929d792c8658ab2601c460001b6200265a565b6040518060200160405280600081525080519060200120818051906020012003620003b957620003597f64a656e8110fd574dd7dd349ae169b768e28c024f223b0d66a57aefb23bea96f60001b6200265a565b620003877f84c6c78113e92ba900d2b5cf85b159d17ddec1076071c6b743a9abff5784f98e60001b6200265a565b6040517f9243059c00000000000000000000000000000000000000000000000000000000815260040160405180910390fd5b620003e77f95335b7199f36e0f8114bcba3d4aebc7025dfb68a13b2009f01ae03351525ba060001b6200265a565b620004157f121065f14e37dee417de2b044a6c6c4dc19c2e3814330b9314f987e171c4f01960001b6200265a565b82620004447fbe45075320cd37b178af4528fc69f7f9afd3d1b3847ab2f6f69d7b95e18a7b5260001b6200265a565b620004727fccf5288e09ce2ff29d147ff3ae1c877247f98a027a6618649e03df190cc68f4b60001b6200265a565b620004a07f948a89803ffe094fce94ab8ca76d16bbfb21f159bd5b6db4aee12fd05523dcc160001b6200265a565b600073ffffffffffffffffffffffffffffffffffffffff168173ffffffffffffffffffffffffffffffffffffffff16036200056357620005037fec31a8a29510779477a49f153ee4eb9975fc64db4753c17b3e4757cdd9f4cb5560001b6200265a565b620005317ffd4154974243bfe46fb803786c1b43158ae948cfa7ca9d3720d0973eb275bd8560001b6200265a565b6040517f67cfa16e00000000000000000000000000000000000000000000000000000000815260040160405180910390fd5b620005917fcd6ac91798c5bfc1084866e71e5711da0cc70aab31d40ef0406341e86ae8b16960001b6200265a565b620005bf7f941c59627a79fbfc5ab41654f25c08ea6ee0ad803cf4eaee3409824fae37fd7560001b6200265a565b620005ed7f7ec8a2e35fbcddabd170e7614b671fd28c655742d16d9e9f077fd21dda7cf80a60001b6200265a565b6200061b7ffef0eb452d7f2131a749ac19fb2f38046449cb21cca528f65ce925d56ddfefcf60001b6200265a565b620006497f8b4c156e22bdef78a2569a589528dd5efeafb7f4a111e3f9d95eaa93662ba6b660001b6200265a565b6000620006568662000896565b9050620006867f31244e8cd8822566b19fcd8461ddb5488843c6843e4ceae2ba70a8822e38264060001b6200265a565b620006b47fc5406b8e97da4870f58103c9974c71ebe3785bb5e0dc6c6fbe503fe30dd53b4260001b6200265a565b600073ffffffffffffffffffffffffffffffffffffffff168173ffffffffffffffffffffffffffffffffffffffff16036200078257620007177fd602bfe9c07b22f4c199bf8a27d4a4259471dc950dfc0c511ef9926e5bef1eb560001b6200265a565b620007457f53ee85b6fe339ec6bacd7ff89202382fc27f2e8a35209dcc0a64dd9f8fa3aa2660001b6200265a565b6040517f0a14efa4000000000000000000000000000000000000000000000000000000008152600401620007799062002aa8565b60405180910390fd5b620007b07f16904e82e05cec77cb58abf13565e5473a4c424f6e2605a4966bafedf6c6744e60001b6200265a565b620007de7f478f8f16008fb3fd92347ca715483346d97813bba4e11f438dcddc52eb8b50f960001b6200265a565b6200080c7f7d41a6d00bee197c0efa404cb5b8d4f78f0012e682d01944ca55e94cc163dbd260001b6200265a565b8073ffffffffffffffffffffffffffffffffffffffff166370a08231866040518263ffffffff1660e01b81526004016200084791906200293f565b602060405180830381865afa15801562000865573d6000803e3d6000fd5b505050506040513d601f19601f820116820180604052508101906200088b919062002ae6565b935050505092915050565b600081620008c77fd87716b7a8c391156e4dd53a776dcf0e1ee2dcffc3e55e774d5b558184f9418d60001b6200265a565b620008f57fb50dbc6c6b21bb255154b45d90cac406c0746f072b9bbcfab25ada2bb258e17860001b6200265a565b620009237f76033ee0e3ed30adecdf4c2894ed334beb5f49790a0a929d792c8658ab2601c460001b6200265a565b6040518060200160405280600081525080519060200120818051906020012003620009d657620009767f64a656e8110fd574dd7dd349ae169b768e28c024f223b0d66a57aefb23bea96f60001b6200265a565b620009a47f84c6c78113e92ba900d2b5cf85b159d17ddec1076071c6b743a9abff5784f98e60001b6200265a565b6040517f9243059c00000000000000000000000000000000000000000000000000000000815260040160405180910390fd5b62000a047f95335b7199f36e0f8114bcba3d4aebc7025dfb68a13b2009f01ae03351525ba060001b6200265a565b62000a327f121065f14e37dee417de2b044a6c6c4dc19c2e3814330b9314f987e171c4f01960001b6200265a565b62000a607f2e6493925b49d3ae98e2c3f2ef072c168e1fc288292a954fc91061ffd02a703460001b6200265a565b62000a8e7f5f0531026423aac23a471d8ef67625f56bf32e2951978126956eb7b0501ceb5c60001b6200265a565b62000abc7f4a0b702f97647e2db1724d5a6ec04a8c10993a4201f1940412b9475d85a2156660001b6200265a565b60018360405162000ace919062002b2f565b908152602001604051809103902060009054906101000a900473ffffffffffffffffffffffffffffffffffffffff16915050919050565b600062000b116200265d565b8162000b407fd87716b7a8c391156e4dd53a776dcf0e1ee2dcffc3e55e774d5b558184f9418d60001b6200265a565b62000b6e7fb50dbc6c6b21bb255154b45d90cac406c0746f072b9bbcfab25ada2bb258e17860001b6200265a565b62000b9c7f76033ee0e3ed30adecdf4c2894ed334beb5f49790a0a929d792c8658ab2601c460001b6200265a565b604051806020016040528060008152508051906020012081805190602001200362000c4f5762000bef7f64a656e8110fd574dd7dd349ae169b768e28c024f223b0d66a57aefb23bea96f60001b6200265a565b62000c1d7f84c6c78113e92ba900d2b5cf85b159d17ddec1076071c6b743a9abff5784f98e60001b6200265a565b6040517f9243059c00000000000000000000000000000000000000000000000000000000815260040160405180910390fd5b62000c7d7f95335b7199f36e0f8114bcba3d4aebc7025dfb68a13b2009f01ae03351525ba060001b6200265a565b62000cab7f121065f14e37dee417de2b044a6c6c4dc19c2e3814330b9314f987e171c4f01960001b6200265a565b8362000cda7f06ada4ddcbab5946c7b4b7b35eaa9af7eda677009915e5826d76fc8aed8bfea260001b6200265a565b62000d087f8c44837bde9f73d24aa8646993b159a5b45ed384a8a133e95ceafb15d4487a7d60001b6200265a565b62000d367fc190da395c0ba1f2949083733af481d1e95d9efd58defee6c6e877752a1cf7b260001b6200265a565b604051806020016040528060008152508051906020012081805190602001200362000de95762000d897f48999aed63c9757d4782c0e72640da3e25a89f1da1b974ea1c2a1ea3cc8aa8a960001b6200265a565b62000db77f867a1615a154d2f609fe18125a07a7e97b67e626d1315bfbd2647f6302e193a460001b6200265a565b6040517f5f3f156600000000000000000000000000000000000000000000000000000000815260040160405180910390fd5b62000e177f1bcec4d0eca879ca8d948e4f7e3b61f4c18b56dafd14a8f29295a1f0d5415e1d60001b6200265a565b62000e457fa069b11b1101ef9433595c0cc7c0a55ac620b9e3c2521c348fb669a36c55acdc60001b6200265a565b62000e737f255f4d11c320622f99386ce086a9cfbdc7b06a1e2226f4cf00f75077dae1757c60001b6200265a565b62000ea17ffbce89b36908c0e41ac75ec040cba09589f2d61b3c2b97a82fbeadd865db5fe560001b6200265a565b62000ecf7f50298e73a20383b5a3a3fcc3e1613e6e0cd1b7268c066098162f90405157e44060001b6200265a565b600073ffffffffffffffffffffffffffffffffffffffff1660018560405162000ef9919062002b2f565b908152602001604051809103902060009054906101000a900473ffffffffffffffffffffffffffffffffffffffff1673ffffffffffffffffffffffffffffffffffffffff161462000fdf5762000f727fbc5c79f114d17caba74c5b81486dfb9bd2dcde3dda59570b286f9f460e648aa160001b6200265a565b62000fa07fa7a935b5f9264bc156f3739940b76e119834f371e580f4b63a1c4dc8ef62b85d60001b6200265a565b836040517f85bc087000000000000000000000000000000000000000000000000000000000815260040162000fd6919062002b7f565b60405180910390fd5b6200100d7ffee2b51aab72f7a5a29e3a2cc13b9d226c2761cc4eb6480091f9261f4e917f9a60001b6200265a565b6200103b7f84423468215d90065e39f0d47e53080364f36b5d1ffbc01e86bf7413b187b74960001b6200265a565b620010697f4877c1a7320fd93b071340252ffc34bb8170d9dbcf1adfc619ef7f9802dc1fab60001b6200265a565b600085856040516200107b90620027ae565b6200108892919062002b9c565b604051809103906000f080158015620010a5573d6000803e3d6000fd5b509050620010d67fc9136acfe4800e3238d8ebf0682645b727a273a1aa02e04a0e0ca3d2d8d70ef760001b6200265a565b620011047f5df12d0ac9ccdea043826bcefd3f8f40d9bef00373a7447c8d3bf197dcdf8fd760001b6200265a565b8060018660405162001117919062002b2f565b908152602001604051809103902060006101000a81548173ffffffffffffffffffffffffffffffffffffffff021916908373ffffffffffffffffffffffffffffffffffffffff160217905550620011917f8eeea16f2ea93e156162c84fe4f984a32f910879c526535d71a92330e7117c7760001b6200265a565b620011bf7f0d710456606c912d06c9c26ce6a390d0d3b9b38cedda81e946a0baa723d671ba60001b6200265a565b84604051620011cf919062002b2f565b604051809103902086604051620011e7919062002b2f565b60405180910390208273ffffffffffffffffffffffffffffffffffffffff167ffb30167b90e3d8f2deaf0ebbb65d1849868ebf79c6d25c020b39fa156f61a9a960405160405180910390a4620012607fd7a45cad86f087365dec5c2063882aa269fcd9018fed25f2476625d6728bd6f760001b6200265a565b6200128e7faeaa11041e21f49a78e64b5679a0157b5fd3cdb168ec6c82a2247ecaa32fd3ee60001b6200265a565b80935050505092915050565b600081620012cb7fd87716b7a8c391156e4dd53a776dcf0e1ee2dcffc3e55e774d5b558184f9418d60001b6200265a565b620012f97fb50dbc6c6b21bb255154b45d90cac406c0746f072b9bbcfab25ada2bb258e17860001b6200265a565b620013277f76033ee0e3ed30adecdf4c2894ed334beb5f49790a0a929d792c8658ab2601c460001b6200265a565b6040518060200160405280600081525080519060200120818051906020012003620013da576200137a7f64a656e8110fd574dd7dd349ae169b768e28c024f223b0d66a57aefb23bea96f60001b6200265a565b620013a87f84c6c78113e92ba900d2b5cf85b159d17ddec1076071c6b743a9abff5784f98e60001b6200265a565b6040517f9243059c00000000000000000000000000000000000000000000000000000000815260040160405180910390fd5b620014087f95335b7199f36e0f8114bcba3d4aebc7025dfb68a13b2009f01ae03351525ba060001b6200265a565b620014367f121065f14e37dee417de2b044a6c6c4dc19c2e3814330b9314f987e171c4f01960001b6200265a565b620014647f311a728accde11699a062558e491023c9cae284fa36f17e8826666c935e4a4dc60001b6200265a565b620014927f971a2020d331cfa1628271b2b4c3f36d797d3f896c74e7b7887308015b7db82160001b6200265a565b620014c07f249d16cc35d49416f10c7d3210359c4e226a7de2e10256c48d0df45d76c202ee60001b6200265a565b6000620014cd8462000896565b9050620014fd7fafba91d75fbb7f39ccff73b053267a074754f788b78b9aaf5c894fb5162200fa60001b6200265a565b6200152b7fd7c94b96b823006962d8fcb0250fc0293f2b8411bb4c2d1b494ec96e1447aa6a60001b6200265a565b600073ffffffffffffffffffffffffffffffffffffffff168173ffffffffffffffffffffffffffffffffffffffff1603620015f9576200158e7f64498661d71bdd02e2b1fb67f569c15bff4c130e4254d4eae53317315ed0d6d060001b6200265a565b620015bc7f94d16c9a601c15448f544acf3096eda25f7b508d36a51379a4e73ded078dfbb960001b6200265a565b6040517f0a14efa4000000000000000000000000000000000000000000000000000000008152600401620015f09062002aa8565b60405180910390fd5b620016277fdc135999f7e5f6028e4a47e0c2cc5e266a99a91f56999bdccecf60619fcc329860001b6200265a565b620016557f0f149ce971d02cb3093469c18ebfabbe699c44d36436247be91f333bc6300d9660001b6200265a565b620016837f279ed60638b372aba2c128f597837678fff43cbdd2960b95a89781d1c9351ce460001b6200265a565b8073ffffffffffffffffffffffffffffffffffffffff166370a08231336040518263ffffffff1660e01b8152600401620016be91906200293f565b602060405180830381865afa158015620016dc573d6000803e3d6000fd5b505050506040513d601f19601f8201168201806040525081019062001702919062002ae6565b92505050919050565b620017156200265d565b620017216000620026e2565b565b60006200172f6200265d565b826200175e7fbe45075320cd37b178af4528fc69f7f9afd3d1b3847ab2f6f69d7b95e18a7b5260001b6200265a565b6200178c7fccf5288e09ce2ff29d147ff3ae1c877247f98a027a6618649e03df190cc68f4b60001b6200265a565b620017ba7f948a89803ffe094fce94ab8ca76d16bbfb21f159bd5b6db4aee12fd05523dcc160001b6200265a565b600073ffffffffffffffffffffffffffffffffffffffff168173ffffffffffffffffffffffffffffffffffffffff16036200187d576200181d7fec31a8a29510779477a49f153ee4eb9975fc64db4753c17b3e4757cdd9f4cb5560001b6200265a565b6200184b7ffd4154974243bfe46fb803786c1b43158ae948cfa7ca9d3720d0973eb275bd8560001b6200265a565b6040517f67cfa16e00000000000000000000000000000000000000000000000000000000815260040160405180910390fd5b620018ab7fcd6ac91798c5bfc1084866e71e5711da0cc70aab31d40ef0406341e86ae8b16960001b6200265a565b620018d97f941c59627a79fbfc5ab41654f25c08ea6ee0ad803cf4eaee3409824fae37fd7560001b6200265a565b84620019087fd87716b7a8c391156e4dd53a776dcf0e1ee2dcffc3e55e774d5b558184f9418d60001b6200265a565b620019367fb50dbc6c6b21bb255154b45d90cac406c0746f072b9bbcfab25ada2bb258e17860001b6200265a565b620019647f76033ee0e3ed30adecdf4c2894ed334beb5f49790a0a929d792c8658ab2601c460001b6200265a565b604051806020016040528060008152508051906020012081805190602001200362001a1757620019b77f64a656e8110fd574dd7dd349ae169b768e28c024f223b0d66a57aefb23bea96f60001b6200265a565b620019e57f84c6c78113e92ba900d2b5cf85b159d17ddec1076071c6b743a9abff5784f98e60001b6200265a565b6040517f9243059c00000000000000000000000000000000000000000000000000000000815260040160405180910390fd5b62001a457f95335b7199f36e0f8114bcba3d4aebc7025dfb68a13b2009f01ae03351525ba060001b6200265a565b62001a737f121065f14e37dee417de2b044a6c6c4dc19c2e3814330b9314f987e171c4f01960001b6200265a565b8362001aa27f14cfd70260597e4105e61e52fb1b226c233cd2fdbab652ab9b32bd9c32f38edc60001b6200265a565b62001ad07fda36668c1d7dbca21fc4633852a11d1df15fda8375a28f1523573eeca5c7ab0c60001b6200265a565b62001afe7ff132a04664f504be36e502a84b9084ca263077987414803829112fae040883f160001b6200265a565b6000810362001b955762001b357fef905da4924cb1a58544d02bb7db94a765b8e4a49cec741fb6cc3905636f7ee160001b6200265a565b62001b637f1824d0001bf10223229a96dbbfe02752fd6927eb9857b5159c44f796d156647160001b6200265a565b6040517f2689c50c00000000000000000000000000000000000000000000000000000000815260040160405180910390fd5b62001bc37f410f82ccf371305664edbfc2578a148638bc086f6151c7936872339b4023d4a860001b6200265a565b62001bf17fd1288125962351304738f2977ea6c06cda9756db31017dad03458e43bb3cff0c60001b6200265a565b62001c1f7fdabd3052a83027ad9741008ff7a4ae3c557c30d2a00d9faee3d88862e8e22ea060001b6200265a565b62001c4d7f482d6d507863d47e2315f641a150752382f0da7085e3983b6967ee27a77a735560001b6200265a565b62001c7b7f34623d07976105d34a11a294dbb312736de84c2120cfef7498e169cecd7ee7f760001b6200265a565b600062001c888862000896565b905062001cb87f9021ed59d0bb9c44a6cbda0eb28a46aaa6e05b5e7309a9f6b9a36ad30df642cd60001b6200265a565b62001ce67fac498f3261141864ca23e88f4ecc2a32f983d182aac6bab7351637c1f77a591260001b6200265a565b600073ffffffffffffffffffffffffffffffffffffffff168173ffffffffffffffffffffffffffffffffffffffff160362001db65762001d497f80e080f9f80fa6a4a0316acca620131f11804659640a6c6a33b30eb2ce1908f060001b6200265a565b62001d777f5dc86b3d55afdb79e9ed9a7b057bbabc4e87d93863459acde19e09b61330a79860001b6200265a565b876040517f0a14efa400000000000000000000000000000000000000000000000000000000815260040162001dad919062002b7f565b60405180910390fd5b62001de37eb94421d9325d43ade445df93303ee381ffa221fbde3cb1151524b2b8e8d57860001b6200265a565b62001e117f997ab1af7d900e214287eb99a47e63f4ad23d675826fddbbaa3883d0689422ad60001b6200265a565b62001e3f7ff3b31b2f0679c1fa1e09f6b2ee85e4e7a22f62210c2dd055720cff8faf2c43bf60001b6200265a565b8073ffffffffffffffffffffffffffffffffffffffff166340c10f1988886040518363ffffffff1660e01b815260040162001e7c92919062002bcf565b600060405180830381600087803b15801562001e9757600080fd5b505af115801562001eac573d6000803e3d6000fd5b5050505062001ede7fc2eaffefa9135df97b71167e4d2fe814b39b60bbbc19f7eceb24e2026d80e7c560001b6200265a565b62001f0c7fdcbf0137f046ed6cd8c1735ce6cdb0643018632adc4e1f5c8444bae5252fcd8a60001b6200265a565b60019450505050509392505050565b60008060009054906101000a900473ffffffffffffffffffffffffffffffffffffffff16905090565b6001818051602081018201805184825260208301602085012081835280955050505050506000915054906101000a900473ffffffffffffffffffffffffffffffffffffffff1681565b62001f976200265d565b600073ffffffffffffffffffffffffffffffffffffffff168173ffffffffffffffffffffffffffffffffffffffff160362002009576040517f08c379a0000000000000000000000000000000000000000000000000000000008152600401620020009062002bfd565b60405180910390fd5b6200201481620026e2565b50565b6000620020236200265d565b83620020527fbe45075320cd37b178af4528fc69f7f9afd3d1b3847ab2f6f69d7b95e18a7b5260001b6200265a565b620020807fccf5288e09ce2ff29d147ff3ae1c877247f98a027a6618649e03df190cc68f4b60001b6200265a565b620020ae7f948a89803ffe094fce94ab8ca76d16bbfb21f159bd5b6db4aee12fd05523dcc160001b6200265a565b600073ffffffffffffffffffffffffffffffffffffffff168173ffffffffffffffffffffffffffffffffffffffff16036200217157620021117fec31a8a29510779477a49f153ee4eb9975fc64db4753c17b3e4757cdd9f4cb5560001b6200265a565b6200213f7ffd4154974243bfe46fb803786c1b43158ae948cfa7ca9d3720d0973eb275bd8560001b6200265a565b6040517f67cfa16e00000000000000000000000000000000000000000000000000000000815260040160405180910390fd5b6200219f7fcd6ac91798c5bfc1084866e71e5711da0cc70aab31d40ef0406341e86ae8b16960001b6200265a565b620021cd7f941c59627a79fbfc5ab41654f25c08ea6ee0ad803cf4eaee3409824fae37fd7560001b6200265a565b83620021fc7fbe45075320cd37b178af4528fc69f7f9afd3d1b3847ab2f6f69d7b95e18a7b5260001b6200265a565b6200222a7fccf5288e09ce2ff29d147ff3ae1c877247f98a027a6618649e03df190cc68f4b60001b6200265a565b620022587f948a89803ffe094fce94ab8ca76d16bbfb21f159bd5b6db4aee12fd05523dcc160001b6200265a565b600073ffffffffffffffffffffffffffffffffffffffff168173ffffffffffffffffffffffffffffffffffffffff16036200231b57620022bb7fec31a8a29510779477a49f153ee4eb9975fc64db4753c17b3e4757cdd9f4cb5560001b6200265a565b620022e97ffd4154974243bfe46fb803786c1b43158ae948cfa7ca9d3720d0973eb275bd8560001b6200265a565b6040517f67cfa16e00000000000000000000000000000000000000000000000000000000815260040160405180910390fd5b620023497fcd6ac91798c5bfc1084866e71e5711da0cc70aab31d40ef0406341e86ae8b16960001b6200265a565b620023777f941c59627a79fbfc5ab41654f25c08ea6ee0ad803cf4eaee3409824fae37fd7560001b6200265a565b83620023a67f14cfd70260597e4105e61e52fb1b226c233cd2fdbab652ab9b32bd9c32f38edc60001b6200265a565b620023d47fda36668c1d7dbca21fc4633852a11d1df15fda8375a28f1523573eeca5c7ab0c60001b6200265a565b620024027ff132a04664f504be36e502a84b9084ca263077987414803829112fae040883f160001b6200265a565b600081036200249957620024397fef905da4924cb1a58544d02bb7db94a765b8e4a49cec741fb6cc3905636f7ee160001b6200265a565b620024677f1824d0001bf10223229a96dbbfe02752fd6927eb9857b5159c44f796d156647160001b6200265a565b6040517f2689c50c00000000000000000000000000000000000000000000000000000000815260040160405180910390fd5b620024c77f410f82ccf371305664edbfc2578a148638bc086f6151c7936872339b4023d4a860001b6200265a565b620024f57fd1288125962351304738f2977ea6c06cda9756db31017dad03458e43bb3cff0c60001b6200265a565b620025237f773ca7aadac20a1cba7cf285ed20765cabf564a98f5db1554671b9b388838e5b60001b6200265a565b620025517f1474bac61745d8a70ead00980d42df9fb61115d826b8b9442ecbb1a891863f7b60001b6200265a565b6200257f7f9da176cab96450e5b35c25b736da5459b5e1311f339ed7cce4deb764c5ff4f9660001b6200265a565b8673ffffffffffffffffffffffffffffffffffffffff166379cc679087876040518363ffffffff1660e01b8152600401620025bc92919062002bcf565b600060405180830381600087803b158015620025d757600080fd5b505af1158015620025ec573d6000803e3d6000fd5b505050506200261e7f4dfcbeec4265356df454e0187f71ff20d1b53eebef80d5466db18ac4db6833db60001b6200265a565b6200264c7fa7a2c3957163c1d91c8e0aaddb921d6c14a2971fbdb040533cd5727e937c17a760001b6200265a565b600193505050509392505050565b50565b62002667620027a6565b73ffffffffffffffffffffffffffffffffffffffff166200268762001f1b565b73ffffffffffffffffffffffffffffffffffffffff1614620026e0576040517f08c379a0000000000000000000000000000000000000000000000000000000008152600401620026d79062002c61565b60405180910390fd5b565b60008060009054906101000a900473ffffffffffffffffffffffffffffffffffffffff169050816000806101000a81548173ffffffffffffffffffffffffffffffffffffffff021916908373ffffffffffffffffffffffffffffffffffffffff1602179055508173ffffffffffffffffffffffffffffffffffffffff168173ffffffffffffffffffffffffffffffffffffffff167f8be0079c531659141344cd1fd0a4f28419497f9722a3daafe3b4186f6b6457e060405160405180910390a35050565b600033905090565b6128d48062002c9f83390190565b634e487b7160e01b600052604160045260246000fd5b600082601f830112620027e457600080fd5b813567ffffffffffffffff80821115620028035762002802620027bc565b5b601f1960405181603f83601f870116011681019150808210838311171562002830576200282f620027bc565b5b816040528381528660208588010111156200284a57600080fd5b836020870160208301376000602085830101528094505050505092915050565b60008135905073ffffffffffffffffffffffffffffffffffffffff811681146200289357600080fd5b919050565b60008060408385031215620028ac57600080fd5b823567ffffffffffffffff811115620028c457600080fd5b620028d285828601620027d2565b925050620028e3602084016200286a565b90509250929050565b600060208201905082825292915050565b6000602082840312156200291057600080fd5b813567ffffffffffffffff8111156200292857600080fd5b6200293684828501620027d2565b91505092915050565b600060208201905073ffffffffffffffffffffffffffffffffffffffff8316825292915050565b600080604083850312156200297a57600080fd5b823567ffffffffffffffff808211156200299357600080fd5b620029a186838701620027d2565b93506020850135915080821115620029b857600080fd5b50620029c785828601620027d2565b9150509250929050565b600080600060608486031215620029e757600080fd5b833567ffffffffffffffff811115620029ff57600080fd5b62002a0d86828701620027d2565b93505062002a1e602085016200286a565b9150604084013590509250925092565b6000602082019050821515825292915050565b60006020828403121562002a5457600080fd5b62002a5f826200286a565b905092915050565b60008060006060848603121562002a7d57600080fd5b62002a88846200286a565b925062002a98602085016200286a565b9150604084013590509250925092565b60208152600660208201527f574552433230000000000000000000000000000000000000000000000000000060408201526000606082019050919050565b60006020828403121562002af957600080fd5b8151905092915050565b60005b8381101562002b2357808201518184015260208101905062002b06565b50600083830152505050565b6000825162002b4381846020870162002b03565b80830191505092915050565b6000815180845262002b6981602086016020860162002b03565b6020601f19601f83011685010191505092915050565b60208152600062002b94602083018462002b4f565b905092915050565b60408152600062002bb1604083018562002b4f565b828103602084015262002bc5818562002b4f565b9150509392505050565b600060408201905073ffffffffffffffffffffffffffffffffffffffff841682528260208301529392505050565b60208152602660208201527f4f776e61626c653a206e6577206f776e657220697320746865207a65726f206160408201527f646472657373000000000000000000000000000000000000000000000000000060608201526000608082019050919050565b602081526020808201527f4f776e61626c653a2063616c6c6572206973206e6f7420746865206f776e65726040820152600060608201905091905056fe6101406040523480156200001257600080fd5b50604051620028d4380380620028d483398181016040528101906200003891906200037d565b80806040518060400160405280600181526020017f310000000000000000000000000000000000000000000000000000000000000081525084848160039081620000839190620004a8565b508060049081620000959190620004a8565b505050620000b8620000ac620001a760201b60201c565b620001af60201b60201c565b60008280519060200120905060008280519060200120905060007f8b73c3c69bb8fe3d512ecc4cf759cc79239f7b179b0ffacaa9a75d522b39400f90508260e081815250508161010081815250504660a08181525050620001218184846200027560201b60201c565b608081815250503073ffffffffffffffffffffffffffffffffffffffff1660c08173ffffffffffffffffffffffffffffffffffffffff16815250508061012081815250505050505050506200019f7f8e925625d4705d052c6b381a11a1b58f32af421cb4d2325a7a6c0f98a1ee5ac260001b620002b160201b60201c565b5050620005b6565b600033905090565b6000600560009054906101000a900473ffffffffffffffffffffffffffffffffffffffff16905081600560006101000a81548173ffffffffffffffffffffffffffffffffffffffff021916908373ffffffffffffffffffffffffffffffffffffffff1602179055508173ffffffffffffffffffffffffffffffffffffffff168173ffffffffffffffffffffffffffffffffffffffff167f8be0079c531659141344cd1fd0a4f28419497f9722a3daafe3b4186f6b6457e060405160405180910390a35050565b600083838346306040516020016200029295949392919062000581565b6040516020818303038152906040528051906020012090509392505050565b50565b634e487b7160e01b600052604160045260246000fd5b600082601f830112620002dc57600080fd5b815160018060401b0380821115620002f957620002f8620002b4565b5b601f1960405181603f83601f8701160116810191508082108383111715620003265762000325620002b4565b5b816040528381526020925086838588010111156200034357600080fd5b600091505b838210156200036857828287010151838383010152828201915062000348565b60008385830101528094505050505092915050565b600080604083850312156200039157600080fd5b825160018060401b0380821115620003a857600080fd5b620003b686838701620002ca565b93506020850151915080821115620003cd57600080fd5b50620003dc85828601620002ca565b9150509250929050565b60008160011c90506001821680620003ff57607f821691505b6020821081036200042057634e487b7160e01b600052602260045260246000fd5b50919050565b806000525060006020600020905090565b601f8211156200048957600081815260208120601f850160051c8101602086101562000461578190505b601f850160051c820191505b8181101562000485578281556001810190506200046d565b5050505b505050565b60008260011b6000198460031b1c19831617905092915050565b815160018060401b03811115620004c457620004c3620002b4565b5b620004dc81620004d58454620003e6565b8462000437565b60006020809150601f83116001811462000515576000841562000500578387015190505b6200050c85826200048e565b86555062000579565b601f198416620005258662000426565b60005b828110156200054d578589015182556001820191508486019550848101905062000528565b50858210156200056d578488015160001960f88860031b161c1981168255505b505060018460011b0185555b505050505050565b600060a08201905086825285602083015284604083015283606083015260018060a01b03831660808301529695505050505050565b60805160a05160c05160e05161010051610120516122ce620006066000396000610fde0152600061102001526000610fff01526000610f3401526000610f8a01526000610fb301526122ce6000f3fe608060405234801561001057600080fd5b506004361061012c5760003560e01c8063715018a6116100ad578063a457c2d711610071578063a457c2d714610333578063a9059cbb14610363578063d505accf14610393578063dd62ed3e146103af578063f2fde38b146103df5761012c565b8063715018a6146102a157806379cc6790146102ab5780637ecebe00146102c75780638da5cb5b146102f757806395d89b41146103155761012c565b80633644e515116100f45780633644e515146101eb578063395093511461020957806340c10f191461023957806342966c681461025557806370a08231146102715761012c565b806306fdde0314610131578063095ea7b31461014f57806318160ddd1461017f57806323b872dd1461019d578063313ce567146101cd575b600080fd5b6101396103fb565b60405161014691906118dc565b60405180910390f35b6101696004803603810190610164919061195a565b61048d565b6040516101769190611986565b60405180910390f35b6101876104b0565b6040516101949190611999565b60405180910390f35b6101b760048036038101906101b291906119aa565b6104ba565b6040516101c49190611986565b60405180910390f35b6101d56104e9565b6040516101e291906119e6565b60405180910390f35b6101f36104f2565b60405161020091906119fa565b60405180910390f35b610223600480360381019061021e919061195a565b610501565b6040516102309190611986565b60405180910390f35b610253600480360381019061024e919061195a565b610538565b005b61026f600480360381019061026a9190611a0b565b6105d2565b005b61028b60048036038101906102869190611a27565b6105e6565b6040516102989190611999565b60405180910390f35b6102a961062e565b005b6102c560048036038101906102c0919061195a565b610642565b005b6102e160048036038101906102dc9190611a27565b610662565b6040516102ee9190611999565b60405180910390f35b6102ff6106b2565b60405161030c9190611a4a565b60405180910390f35b61031d6106dc565b60405161032a91906118dc565b60405180910390f35b61034d6004803603810190610348919061195a565b61076e565b60405161035a9190611986565b60405180910390f35b61037d6004803603810190610378919061195a565b6107e5565b60405161038a9190611986565b60405180910390f35b6103ad60048036038101906103a89190611a71565b610808565b005b6103c960048036038101906103c49190611ae5565b61094a565b6040516103d69190611999565b60405180910390f35b6103f960048036038101906103f49190611a27565b6109d1565b005b60606003805461040a90611b18565b80601f016020809104026020016040519081016040528092919081815260200182805461043690611b18565b80156104835780601f1061045857610100808354040283529160200191610483565b820191906000526020600020905b81548152906001019060200180831161046657829003601f168201915b5050505050905090565b600080610498610a54565b90506104a5818585610a5c565b600191505092915050565b6000600254905090565b6000806104c5610a54565b90506104d2858285610c25565b6104dd858585610cb1565b60019150509392505050565b60006012905090565b60006104fc610f30565b905090565b60008061050c610a54565b905061052d81858561051e858961094a565b6105289190611b6c565b610a5c565b600191505092915050565b61054061104a565b61056c7fb8d1ec5e9dd122d66335e53a46788f084ffba3db7e3c09a5ed401cc87d03cb6f60001b6110c8565b6105987ff4aa10397d49dd88c056a2e089aed261a70d801ca3c756a936dbdb4ae4b17db360001b6110c8565b6105c47fed12b05fae2af36832abfd61323fe6c5f05e2875022b35b468edca090389780360001b6110c8565b6105ce82826110cb565b5050565b6105e36105dd610a54565b8261122a565b50565b60008060008373ffffffffffffffffffffffffffffffffffffffff1673ffffffffffffffffffffffffffffffffffffffff168152602001908152602001600020549050919050565b61063661104a565b6106406000611400565b565b6106548261064e610a54565b83610c25565b61065e828261122a565b5050565b60006106ab600660008473ffffffffffffffffffffffffffffffffffffffff1673ffffffffffffffffffffffffffffffffffffffff1681526020019081526020016000206114c6565b9050919050565b6000600560009054906101000a900473ffffffffffffffffffffffffffffffffffffffff16905090565b6060600480546106eb90611b18565b80601f016020809104026020016040519081016040528092919081815260200182805461071790611b18565b80156107645780601f1061073957610100808354040283529160200191610764565b820191906000526020600020905b81548152906001019060200180831161074757829003601f168201915b5050505050905090565b600080610779610a54565b90506000610787828661094a565b9050838110156107cc576040517f08c379a00000000000000000000000000000000000000000000000000000000081526004016107c390611b8a565b60405180910390fd5b6107d98286868403610a5c565b60019250505092915050565b6000806107f0610a54565b90506107fd818585610cb1565b600191505092915050565b8342111561084b576040517f08c379a000000000000000000000000000000000000000000000000000000000815260040161084290611bee565b60405180910390fd5b60007f6e71edae12b1b97f4d1f60370fef10105fa2faae0126114a169c64845d6126c988888861087a8c6114d4565b8960405160200161089096959493929190611c2c565b60405160208183030381529060405280519060200120905060006108b382611532565b905060006108c38287878761154c565b90508973ffffffffffffffffffffffffffffffffffffffff168173ffffffffffffffffffffffffffffffffffffffff1614610933576040517f08c379a000000000000000000000000000000000000000000000000000000000815260040161092a90611c7a565b60405180910390fd5b61093e8a8a8a610a5c565b50505050505050505050565b6000600160008473ffffffffffffffffffffffffffffffffffffffff1673ffffffffffffffffffffffffffffffffffffffff16815260200190815260200160002060008373ffffffffffffffffffffffffffffffffffffffff1673ffffffffffffffffffffffffffffffffffffffff16815260200190815260200160002054905092915050565b6109d961104a565b600073ffffffffffffffffffffffffffffffffffffffff168173ffffffffffffffffffffffffffffffffffffffff1603610a48576040517f08c379a0000000000000000000000000000000000000000000000000000000008152600401610a3f90611cb8565b60405180910390fd5b610a5181611400565b50565b600033905090565b600073ffffffffffffffffffffffffffffffffffffffff168373ffffffffffffffffffffffffffffffffffffffff1603610acb576040517f08c379a0000000000000000000000000000000000000000000000000000000008152600401610ac290611d1c565b60405180910390fd5b600073ffffffffffffffffffffffffffffffffffffffff168273ffffffffffffffffffffffffffffffffffffffff1603610b3a576040517f08c379a0000000000000000000000000000000000000000000000000000000008152600401610b3190611d80565b60405180910390fd5b80600160008573ffffffffffffffffffffffffffffffffffffffff1673ffffffffffffffffffffffffffffffffffffffff16815260200190815260200160002060008473ffffffffffffffffffffffffffffffffffffffff1673ffffffffffffffffffffffffffffffffffffffff168152602001908152602001600020819055508173ffffffffffffffffffffffffffffffffffffffff168373ffffffffffffffffffffffffffffffffffffffff167f8c5be1e5ebec7d5bd14f71427d1e84f3dd0314c0f7b2291e5b200ac8c7c3b92583604051610c189190611999565b60405180910390a3505050565b6000610c31848461094a565b90507fffffffffffffffffffffffffffffffffffffffffffffffffffffffffffffffff8114610cab5781811015610c9d576040517f08c379a0000000000000000000000000000000000000000000000000000000008152600401610c9490611de4565b60405180910390fd5b610caa8484848403610a5c565b5b50505050565b600073ffffffffffffffffffffffffffffffffffffffff168373ffffffffffffffffffffffffffffffffffffffff1603610d20576040517f08c379a0000000000000000000000000000000000000000000000000000000008152600401610d1790611e22565b60405180910390fd5b600073ffffffffffffffffffffffffffffffffffffffff168273ffffffffffffffffffffffffffffffffffffffff1603610d8f576040517f08c379a0000000000000000000000000000000000000000000000000000000008152600401610d8690611e86565b60405180910390fd5b610d9a838383611577565b60008060008573ffffffffffffffffffffffffffffffffffffffff1673ffffffffffffffffffffffffffffffffffffffff16815260200190815260200160002054905081811015610e20576040517f08c379a0000000000000000000000000000000000000000000000000000000008152600401610e1790611eea565b60405180910390fd5b8181036000808673ffffffffffffffffffffffffffffffffffffffff1673ffffffffffffffffffffffffffffffffffffffff16815260200190815260200160002081905550816000808573ffffffffffffffffffffffffffffffffffffffff1673ffffffffffffffffffffffffffffffffffffffff1681526020019081526020016000206000828254610eb39190611b6c565b925050819055508273ffffffffffffffffffffffffffffffffffffffff168473ffffffffffffffffffffffffffffffffffffffff167fddf252ad1be2c89b69c2b068fc378daa952ba7f163c4a11628f55a4df523b3ef84604051610f179190611999565b60405180910390a3610f2a84848461157c565b50505050565b60007f000000000000000000000000000000000000000000000000000000000000000073ffffffffffffffffffffffffffffffffffffffff163073ffffffffffffffffffffffffffffffffffffffff16148015610fac57507f000000000000000000000000000000000000000000000000000000000000000046145b15610fd9577f00000000000000000000000000000000000000000000000000000000000000009050611047565b6110447f00000000000000000000000000000000000000000000000000000000000000007f00000000000000000000000000000000000000000000000000000000000000007f0000000000000000000000000000000000000000000000000000000000000000611581565b90505b90565b611052610a54565b73ffffffffffffffffffffffffffffffffffffffff166110706106b2565b73ffffffffffffffffffffffffffffffffffffffff16146110c6576040517f08c379a00000000000000000000000000000000000000000000000000000000081526004016110bd90611f4e565b60405180910390fd5b565b50565b600073ffffffffffffffffffffffffffffffffffffffff168273ffffffffffffffffffffffffffffffffffffffff160361113a576040517f08c379a000000000000000000000000000000000000000000000000000000000815260040161113190611f8b565b60405180910390fd5b61114660008383611577565b80600260008282546111589190611b6c565b92505081905550806000808473ffffffffffffffffffffffffffffffffffffffff1673ffffffffffffffffffffffffffffffffffffffff16815260200190815260200160002060008282546111ad9190611b6c565b925050819055508173ffffffffffffffffffffffffffffffffffffffff16600073ffffffffffffffffffffffffffffffffffffffff167fddf252ad1be2c89b69c2b068fc378daa952ba7f163c4a11628f55a4df523b3ef836040516112129190611999565b60405180910390a36112266000838361157c565b5050565b600073ffffffffffffffffffffffffffffffffffffffff168273ffffffffffffffffffffffffffffffffffffffff1603611299576040517f08c379a000000000000000000000000000000000000000000000000000000000815260040161129090611fc9565b60405180910390fd5b6112a582600083611577565b60008060008473ffffffffffffffffffffffffffffffffffffffff1673ffffffffffffffffffffffffffffffffffffffff1681526020019081526020016000205490508181101561132b576040517f08c379a00000000000000000000000000000000000000000000000000000000081526004016113229061202d565b60405180910390fd5b8181036000808573ffffffffffffffffffffffffffffffffffffffff1673ffffffffffffffffffffffffffffffffffffffff1681526020019081526020016000208190555081600260008282546113829190612091565b92505081905550600073ffffffffffffffffffffffffffffffffffffffff168373ffffffffffffffffffffffffffffffffffffffff167fddf252ad1be2c89b69c2b068fc378daa952ba7f163c4a11628f55a4df523b3ef846040516113e79190611999565b60405180910390a36113fb8360008461157c565b505050565b6000600560009054906101000a900473ffffffffffffffffffffffffffffffffffffffff16905081600560006101000a81548173ffffffffffffffffffffffffffffffffffffffff021916908373ffffffffffffffffffffffffffffffffffffffff1602179055508173ffffffffffffffffffffffffffffffffffffffff168173ffffffffffffffffffffffffffffffffffffffff167f8be0079c531659141344cd1fd0a4f28419497f9722a3daafe3b4186f6b6457e060405160405180910390a35050565b600081600001549050919050565b600080600660008473ffffffffffffffffffffffffffffffffffffffff1673ffffffffffffffffffffffffffffffffffffffff1681526020019081526020016000209050611521816114c6565b915061152c816115bb565b50919050565b600061154561153f610f30565b836115d1565b9050919050565b600080600061155d87878787611604565b9150915061156a81611710565b8192505050949350505050565b505050565b505050565b6000838383463060405160200161159c9594939291906120af565b6040516020818303038152906040528051906020012090509392505050565b6001816000016000828254019250508190555050565b600082826040516020016115e69291906120f2565b60405160208183030381529060405280519060200120905092915050565b6000807f7fffffffffffffffffffffffffffffff5d576e7357a4501ddfe92f46681b20a08360001c111561163f576000600391509150611707565b601b8560ff16141580156116575750601c8560ff1614155b15611669576000600491509150611707565b60006001878787876040516000815260200160405260405161168e9493929190612115565b6020604051602081039080840390855afa1580156116b0573d6000803e3d6000fd5b505050602060405103519050600073ffffffffffffffffffffffffffffffffffffffff168173ffffffffffffffffffffffffffffffffffffffff16036116fe57600060019250925050611707565b80600092509250505b94509492505050565b600060048111156117245761172361213e565b5b8160048111156117375761173661213e565b5b03156118d957600160048111156117515761175061213e565b5b8160048111156117645761176361213e565b5b036117a4576040517f08c379a000000000000000000000000000000000000000000000000000000000815260040161179b90612154565b60405180910390fd5b600260048111156117b8576117b761213e565b5b8160048111156117cb576117ca61213e565b5b0361180b576040517f08c379a000000000000000000000000000000000000000000000000000000000815260040161180290612192565b60405180910390fd5b6003600481111561181f5761181e61213e565b5b8160048111156118325761183161213e565b5b03611872576040517f08c379a0000000000000000000000000000000000000000000000000000000008152600401611869906121d0565b60405180910390fd5b6004808111156118855761188461213e565b5b8160048111156118985761189761213e565b5b036118d8576040517f08c379a00000000000000000000000000000000000000000000000000000000081526004016118cf90612234565b60405180910390fd5b5b50565b600060208083528351808285015260005b8181101561190c578281870101516040828701015282810190506118ed565b506000604082860101526040601f19601f8301168501019250505092915050565b60008135905073ffffffffffffffffffffffffffffffffffffffff8116811461195557600080fd5b919050565b6000806040838503121561196d57600080fd5b6119768361192d565b9150602083013590509250929050565b6000602082019050821515825292915050565b600060208201905082825292915050565b6000806000606084860312156119bf57600080fd5b6119c88461192d565b92506119d66020850161192d565b9150604084013590509250925092565b600060208201905060ff8316825292915050565b600060208201905082825292915050565b600060208284031215611a1d57600080fd5b8135905092915050565b600060208284031215611a3957600080fd5b611a428261192d565b905092915050565b600060208201905073ffffffffffffffffffffffffffffffffffffffff8316825292915050565b600080600080600080600060e0888a031215611a8c57600080fd5b611a958861192d565b9650611aa36020890161192d565b95506040880135945060608801359350608088013560ff81168114611ac757600080fd5b8093505060a0880135915060c0880135905092959891949750929550565b60008060408385031215611af857600080fd5b611b018361192d565b9150611b0f6020840161192d565b90509250929050565b60008160011c90506001821680611b3057607f821691505b602082108103611b5057634e487b7160e01b600052602260045260246000fd5b50919050565b634e487b7160e01b600052601160045260246000fd5b6000828201905080821115611b8457611b83611b56565b5b92915050565b60208152602560208201527f45524332303a2064656372656173656420616c6c6f77616e63652062656c6f7760408201527f207a65726f00000000000000000000000000000000000000000000000000000060608201526000608082019050919050565b60208152601d60208201527f45524332305065726d69743a206578706972656420646561646c696e6500000060408201526000606082019050919050565b600060c08201905087825273ffffffffffffffffffffffffffffffffffffffff80881660208401528087166040840152508460608301528360808301528260a0830152979650505050505050565b60208152601e60208201527f45524332305065726d69743a20696e76616c6964207369676e6174757265000060408201526000606082019050919050565b60208152602660208201527f4f776e61626c653a206e6577206f776e657220697320746865207a65726f206160408201527f646472657373000000000000000000000000000000000000000000000000000060608201526000608082019050919050565b60208152602460208201527f45524332303a20617070726f76652066726f6d20746865207a65726f2061646460408201527f726573730000000000000000000000000000000000000000000000000000000060608201526000608082019050919050565b60208152602260208201527f45524332303a20617070726f766520746f20746865207a65726f20616464726560408201527f737300000000000000000000000000000000000000000000000000000000000060608201526000608082019050919050565b60208152601d60208201527f45524332303a20696e73756666696369656e7420616c6c6f77616e636500000060408201526000606082019050919050565b60208152602560208201527f45524332303a207472616e736665722066726f6d20746865207a65726f20616460408201527f647265737300000000000000000000000000000000000000000000000000000060608201526000608082019050919050565b60208152602360208201527f45524332303a207472616e7366657220746f20746865207a65726f206164647260408201527f657373000000000000000000000000000000000000000000000000000000000060608201526000608082019050919050565b60208152602660208201527f45524332303a207472616e7366657220616d6f756e742065786365656473206260408201527f616c616e6365000000000000000000000000000000000000000000000000000060608201526000608082019050919050565b602081526020808201527f4f776e61626c653a2063616c6c6572206973206e6f7420746865206f776e657260408201526000606082019050919050565b60208152601f60208201527f45524332303a206d696e7420746f20746865207a65726f20616464726573730060408201526000606082019050919050565b60208152602160208201527f45524332303a206275726e2066726f6d20746865207a65726f2061646472657360408201527f730000000000000000000000000000000000000000000000000000000000000060608201526000608082019050919050565b60208152602260208201527f45524332303a206275726e20616d6f756e7420657863656564732062616c616e60408201527f636500000000000000000000000000000000000000000000000000000000000060608201526000608082019050919050565b60008282039050818111156120a9576120a8611b56565b5b92915050565b600060a08201905086825285602083015284604083015283606083015273ffffffffffffffffffffffffffffffffffffffff831660808301529695505050505050565b61190160f01b815282600282015281602282015260006042820190509392505050565b600060808201905085825260ff8516602083015283604083015282606083015295945050505050565b634e487b7160e01b600052602160045260246000fd5b60208152601860208201527f45434453413a20696e76616c6964207369676e6174757265000000000000000060408201526000606082019050919050565b60208152601f60208201527f45434453413a20696e76616c6964207369676e6174757265206c656e6774680060408201526000606082019050919050565b60208152602260208201527f45434453413a20696e76616c6964207369676e6174757265202773272076616c60408201527f756500000000000000000000000000000000000000000000000000000000000060608201526000608082019050919050565b60208152602260208201527f45434453413a20696e76616c6964207369676e6174757265202776272076616c60408201527f75650000000000000000000000000000000000000000000000000000000000006060820152600060808201905091905056fea2646970667358221220143c4ccdbd4f193e14e7c4f9354822beb8ead8a655e514f8fce388b109dab78664736f6c63430008110033a26469706673582212203366c7c45e0c63f0308caa981e970a9c0bf2cf24dc8058703a44e832ca96ef6a64736f6c63430008110033",
  "linkReferences": {},
  "deployedLinkReferences": {}
}