{
  "_format": "hh-sol-artifact-1",
  "contractName": "Bridge",
  "sourceName": "contracts/Bridge.sol",
  "abi": [
    {
      "inputs": [],
      "stateMutability": "nonpayable",
      "type": "constructor"
    },
    {
      "inputs": [],
      "name": "Bridge__NotAllowedToDoThisAction",
      "type": "error"
    },
    {
      "anonymous": false,
      "inputs": [
        {
          "indexed": true,
          "internalType": "bytes32",
          "name": "role",
          "type": "bytes32"
        },
        {
          "indexed": true,
          "internalType": "bytes32",
          "name": "previousAdminRole",
          "type": "bytes32"
        },
        {
          "indexed": true,
          "internalType": "bytes32",
          "name": "newAdminRole",
          "type": "bytes32"
        }
      ],
      "name": "RoleAdminChanged",
      "type": "event"
    },
    {
      "anonymous": false,
      "inputs": [
        {
          "indexed": true,
          "internalType": "bytes32",
          "name": "role",
          "type": "bytes32"
        },
        {
          "indexed": true,
          "internalType": "address",
          "name": "account",
          "type": "address"
        },
        {
          "indexed": true,
          "internalType": "address",
          "name": "sender",
          "type": "address"
        }
      ],
      "name": "RoleGranted",
      "type": "event"
    },
    {
      "anonymous": false,
      "inputs": [
        {
          "indexed": true,
          "internalType": "bytes32",
          "name": "role",
          "type": "bytes32"
        },
        {
          "indexed": true,
          "internalType": "address",
          "name": "account",
          "type": "address"
        },
        {
          "indexed": true,
          "internalType": "address",
          "name": "sender",
          "type": "address"
        }
      ],
      "name": "RoleRevoked",
      "type": "event"
    },
    {
      "anonymous": false,
      "inputs": [
        {
          "indexed": true,
          "internalType": "address",
          "name": "user",
          "type": "address"
        },
        {
          "indexed": false,
          "internalType": "address",
          "name": "tokenAddress",
          "type": "address"
        },
        {
          "indexed": false,
          "internalType": "uint256",
          "name": "amount",
          "type": "uint256"
        },
        {
          "indexed": true,
          "internalType": "uint256",
          "name": "chainId",
          "type": "uint256"
        },
        {
          "indexed": true,
          "internalType": "string",
          "name": "tokenSymbol",
          "type": "string"
        },
        {
          "indexed": false,
          "internalType": "string",
          "name": "tokenName",
          "type": "string"
        }
      ],
      "name": "TransferCompleted",
      "type": "event"
    },
    {
      "anonymous": false,
      "inputs": [
        {
          "indexed": true,
          "internalType": "address",
          "name": "user",
          "type": "address"
        },
        {
          "indexed": false,
          "internalType": "address",
          "name": "tokenAddress",
          "type": "address"
        },
        {
          "indexed": false,
          "internalType": "uint256",
          "name": "sourceChainId",
          "type": "uint256"
        },
        {
          "indexed": false,
          "internalType": "uint256",
          "name": "amount",
          "type": "uint256"
        },
        {
          "indexed": true,
          "internalType": "uint256",
          "name": "targetChainId",
          "type": "uint256"
        },
        {
          "indexed": true,
          "internalType": "string",
          "name": "tokenSymbol",
          "type": "string"
        },
        {
          "indexed": false,
          "internalType": "string",
          "name": "tokenName",
          "type": "string"
        }
      ],
      "name": "TransferInitiated",
      "type": "event"
    },
    {
      "inputs": [],
      "name": "DEFAULT_ADMIN_ROLE",
      "outputs": [
        {
          "internalType": "bytes32",
          "name": "",
          "type": "bytes32"
        }
      ],
      "stateMutability": "view",
      "type": "function"
    },
    {
      "inputs": [],
      "name": "RELAYER",
      "outputs": [
        {
          "internalType": "bytes32",
          "name": "",
          "type": "bytes32"
        }
      ],
      "stateMutability": "view",
      "type": "function"
    },
    {
      "inputs": [
        {
          "internalType": "address",
          "name": "_relayer",
          "type": "address"
        }
      ],
      "name": "addRelayer",
      "outputs": [],
      "stateMutability": "nonpayable",
      "type": "function"
    },
    {
      "inputs": [],
      "name": "factory",
      "outputs": [
        {
          "internalType": "contract WERC20Factory",
          "name": "",
          "type": "address"
        }
      ],
      "stateMutability": "view",
      "type": "function"
    },
    {
      "inputs": [
        {
          "internalType": "bytes32",
          "name": "role",
          "type": "bytes32"
        }
      ],
      "name": "getRoleAdmin",
      "outputs": [
        {
          "internalType": "bytes32",
          "name": "",
          "type": "bytes32"
        }
      ],
      "stateMutability": "view",
      "type": "function"
    },
    {
      "inputs": [
        {
          "internalType": "bytes32",
          "name": "role",
          "type": "bytes32"
        },
        {
          "internalType": "address",
          "name": "account",
          "type": "address"
        }
      ],
      "name": "grantRole",
      "outputs": [],
      "stateMutability": "nonpayable",
      "type": "function"
    },
    {
      "inputs": [
        {
          "internalType": "bytes32",
          "name": "role",
          "type": "bytes32"
        },
        {
          "internalType": "address",
          "name": "account",
          "type": "address"
        }
      ],
      "name": "hasRole",
      "outputs": [
        {
          "internalType": "bool",
          "name": "",
          "type": "bool"
        }
      ],
      "stateMutability": "view",
      "type": "function"
    },
    {
      "inputs": [
        {
          "internalType": "address",
          "name": "_user",
          "type": "address"
        },
        {
          "internalType": "address",
          "name": "_tokenAddress",
          "type": "address"
        },
        {
          "internalType": "uint256",
          "name": "_targetChainId",
          "type": "uint256"
        },
        {
          "internalType": "uint256",
          "name": "_amount",
          "type": "uint256"
        },
        {
          "internalType": "string",
          "name": "_tokenName",
          "type": "string"
        },
        {
          "internalType": "string",
          "name": "_tokenSymbol",
          "type": "string"
        }
      ],
      "name": "initiateTransfer",
      "outputs": [],
      "stateMutability": "nonpayable",
      "type": "function"
    },
    {
      "inputs": [
        {
          "internalType": "string",
          "name": "_symbol",
          "type": "string"
        },
        {
          "internalType": "string",
          "name": "_tokenName",
          "type": "string"
        },
        {
          "internalType": "address",
          "name": "_to",
          "type": "address"
        },
        {
          "internalType": "uint256",
          "name": "_amount",
          "type": "uint256"
        }
      ],
      "name": "mintToken",
      "outputs": [],
      "stateMutability": "nonpayable",
      "type": "function"
    },
    {
      "inputs": [
        {
          "internalType": "address",
          "name": "_relayer",
          "type": "address"
        }
      ],
      "name": "removeRelayer",
      "outputs": [],
      "stateMutability": "nonpayable",
      "type": "function"
    },
    {
      "inputs": [
        {
          "internalType": "bytes32",
          "name": "role",
          "type": "bytes32"
        },
        {
          "internalType": "address",
          "name": "account",
          "type": "address"
        }
      ],
      "name": "renounceRole",
      "outputs": [],
      "stateMutability": "nonpayable",
      "type": "function"
    },
    {
      "inputs": [
        {
          "internalType": "bytes32",
          "name": "role",
          "type": "bytes32"
        },
        {
          "internalType": "address",
          "name": "account",
          "type": "address"
        }
      ],
      "name": "revokeRole",
      "outputs": [],
      "stateMutability": "nonpayable",
      "type": "function"
    },
    {
      "inputs": [
        {
          "internalType": "bytes4",
          "name": "interfaceId",
          "type": "bytes4"
        }
      ],
      "name": "supportsInterface",
      "outputs": [
        {
          "internalType": "bool",
          "name": "",
          "type": "bool"
        }
      ],
      "stateMutability": "view",
      "type": "function"
    },
    {
      "inputs": [
        {
          "internalType": "address",
          "name": "_tokenAddress",
          "type": "address"
        },
        {
          "internalType": "address",
          "name": "_to",
          "type": "address"
        }
      ],
      "name": "withdrawToken",
      "outputs": [],
      "stateMutability": "nonpayable",
      "type": "function"
    }
  ],
  "bytecode": "0x608060405234801561001057600080fd5b5061001c60003361006a565b60405161002890610109565b604051809103906000f080158015610044573d6000803e3d6000fd5b50600180546001600160a01b0319166001600160a01b0392909216919091179055610117565b6000828152602081815260408083206001600160a01b038516845290915290205460ff16610105576000828152602081815260408083206001600160a01b03851684529091529020805460ff191660011790556100c43390565b6001600160a01b0316816001600160a01b0316837f2f8788117e7eff1d82e926ec794901d17c78024a50270940304540a733656f0d60405160405180910390a45b5050565b61249d806200158a83390190565b61146380620001276000396000f3fe608060405234801561001057600080fd5b50600436106100ea5760003560e01c80635e13b8151161008c578063a217fddf11610066578063a217fddf1461021a578063c45a015514610222578063d547741f1461024d578063dd39f00d1461026057600080fd5b80635e13b815146101bd57806360f0a5ac146101d057806391d14854146101e357600080fd5b80632962053d116100c85780632962053d1461016f5780632f2ff15d1461018457806336568abe146101975780633aeac4e1146101aa57600080fd5b806301ffc9a7146100ef5780632483e71514610117578063248a9ca31461014c575b600080fd5b6101026100fd366004610d90565b610273565b60405190151581526020015b60405180910390f35b61013e7fab4f864e5201b0fde9b5ee3e4cf96384802b0ffdfcf7f9de4699ce21a30afc4f81565b60405190815260200161010e565b61013e61015a366004610dba565b60009081526020819052604090206001015490565b61018261017d366004610e8b565b6102dc565b005b610182610192366004610f09565b610572565b6101826101a5366004610f09565b61059c565b6101826101b8366004610f39565b61062d565b6101826101cb366004610f67565b610776565b6101826101de366004611002565b6108e9565b6101026101f1366004610f09565b6000918252602082815260408084206001600160a01b0393909316845291905290205460ff1690565b61013e600081565b600154610235906001600160a01b031681565b6040516001600160a01b03909116815260200161010e565b61018261025b366004610f09565b610965565b61018261026e366004611002565b61098a565b60006001600160e01b031982167f7965db0b0000000000000000000000000000000000000000000000000000000014806102d657507f01ffc9a7000000000000000000000000000000000000000000000000000000006001600160e01b03198316145b92915050565b3360009081527f4ddfba09fd552dffa20d1bcdfba7591474bea12d8293370c1f8e96088236ff9f602052604090205460ff1661032b57604051633e78b92160e01b815260040160405180910390fd5b60008460405160200161033e9190611043565b60408051601f19818403018152908290526001547f18c04bbb0000000000000000000000000000000000000000000000000000000083529092506000916001600160a01b03909116906318c04bbb9061039b9085906004016110b4565b602060405180830381865afa1580156103b8573d6000803e3d6000fd5b505050506040513d601f19601f820116820180604052508101906103dc91906110c7565b90506001600160a01b03811661047d576001546040517f518f58c50000000000000000000000000000000000000000000000000000000081526001600160a01b039091169063518f58c59061043790889086906004016110e4565b6020604051808303816000875af1158015610456573d6000803e3d6000fd5b505050506040513d601f19601f8201168201806040525081019061047a91906110c7565b90505b6001546040517f7e8816b90000000000000000000000000000000000000000000000000000000081526001600160a01b0390911690637e8816b9906104ca90859088908890600401611112565b6020604051808303816000875af11580156104e9573d6000803e3d6000fd5b505050506040513d601f19601f8201168201806040525081019061050d9190611140565b508160405161051c9190611162565b604051809103902046856001600160a01b03167f41afc5c250410dbbd79e102a9496843e3907adda6e9fa6259cd8f1297151714484878a6040516105629392919061117e565b60405180910390a4505050505050565b60008281526020819052604090206001015461058d81610a03565b6105978383610a0d565b505050565b6001600160a01b038116331461061f5760405162461bcd60e51b815260206004820152602f60248201527f416363657373436f6e74726f6c3a2063616e206f6e6c792072656e6f756e636560448201527f20726f6c657320666f722073656c66000000000000000000000000000000000060648201526084015b60405180910390fd5b6106298282610aab565b5050565b3360009081527f4ddfba09fd552dffa20d1bcdfba7591474bea12d8293370c1f8e96088236ff9f602052604090205460ff1661067c57604051633e78b92160e01b815260040160405180910390fd5b6040517f70a082310000000000000000000000000000000000000000000000000000000081523060048201526001600160a01b0383169063a9059cbb90839083906370a0823190602401602060405180830381865afa1580156106e3573d6000803e3d6000fd5b505050506040513d601f19601f8201168201806040525081019061070791906111a6565b6040516001600160e01b031960e085901b1681526001600160a01b03909216600483015260248201526044016020604051808303816000875af1158015610752573d6000803e3d6000fd5b505050506040513d601f19601f820116820180604052508101906105979190611140565b3360009081527f4ddfba09fd552dffa20d1bcdfba7591474bea12d8293370c1f8e96088236ff9f602052604090205460ff166107c557604051633e78b92160e01b815260040160405180910390fd5b6001600160a01b038681166000818152600260208181526040808420815160c081018352958652468684019081529186018b8152606087018b8152608088018b815260a089018b905283546001808201865594895295909720885160069096020180547fffffffffffffffffffffffff00000000000000000000000000000000000000001695909916949094178855915190870155519185019190915551600384015551909190600482019061087b9082611247565b5060a082015160058201906108909082611247565b505050806040516108a19190611162565b604051809103902083876001600160a01b03167f671a552161bc1823faa6a095044496ad95ca27b356d70b106abfe3ad14bde7c6884689886040516105629493929190611307565b3360009081527f4ddfba09fd552dffa20d1bcdfba7591474bea12d8293370c1f8e96088236ff9f602052604090205460ff1661093857604051633e78b92160e01b815260040160405180910390fd5b6109627fab4f864e5201b0fde9b5ee3e4cf96384802b0ffdfcf7f9de4699ce21a30afc4f82610965565b50565b60008281526020819052604090206001015461098081610a03565b6105978383610aab565b3360009081527f4ddfba09fd552dffa20d1bcdfba7591474bea12d8293370c1f8e96088236ff9f602052604090205460ff166109d957604051633e78b92160e01b815260040160405180910390fd5b6109627fab4f864e5201b0fde9b5ee3e4cf96384802b0ffdfcf7f9de4699ce21a30afc4f82610572565b6109628133610b2a565b6000828152602081815260408083206001600160a01b038516845290915290205460ff16610629576000828152602081815260408083206001600160a01b03851684529091529020805460ff19166001179055610a673390565b6001600160a01b0316816001600160a01b0316837f2f8788117e7eff1d82e926ec794901d17c78024a50270940304540a733656f0d60405160405180910390a45050565b6000828152602081815260408083206001600160a01b038516845290915290205460ff1615610629576000828152602081815260408083206001600160a01b0385168085529252808320805460ff1916905551339285917ff6391f5c32d9c69d2a47ea670b442974b53935d1edc7fd64eb21e047a839171b9190a45050565b6000828152602081815260408083206001600160a01b038516845290915290205460ff1661062957610b66816001600160a01b03166014610ba8565b610b71836020610ba8565b604051602001610b8292919061133f565b60408051601f198184030181529082905262461bcd60e51b8252610616916004016110b4565b60606000610bb78360026113d6565b610bc29060026113ed565b67ffffffffffffffff811115610bda57610bda610dd3565b6040519080825280601f01601f191660200182016040528015610c04576020820181803683370190505b5090507f300000000000000000000000000000000000000000000000000000000000000081600081518110610c3b57610c3b611400565b60200101906001600160f81b031916908160001a9053507f780000000000000000000000000000000000000000000000000000000000000081600181518110610c8657610c86611400565b60200101906001600160f81b031916908160001a9053506000610caa8460026113d6565b610cb59060016113ed565b90505b6001811115610d3a577f303132333435363738396162636465660000000000000000000000000000000085600f1660108110610cf657610cf6611400565b1a60f81b828281518110610d0c57610d0c611400565b60200101906001600160f81b031916908160001a90535060049490941c93610d3381611416565b9050610cb8565b508315610d895760405162461bcd60e51b815260206004820181905260248201527f537472696e67733a20686578206c656e67746820696e73756666696369656e746044820152606401610616565b9392505050565b600060208284031215610da257600080fd5b81356001600160e01b031981168114610d8957600080fd5b600060208284031215610dcc57600080fd5b5035919050565b634e487b7160e01b600052604160045260246000fd5b600082601f830112610dfa57600080fd5b813567ffffffffffffffff80821115610e1557610e15610dd3565b604051601f8301601f19908116603f01168101908282118183101715610e3d57610e3d610dd3565b81604052838152866020858801011115610e5657600080fd5b836020870160208301376000602085830101528094505050505092915050565b6001600160a01b038116811461096257600080fd5b60008060008060808587031215610ea157600080fd5b843567ffffffffffffffff80821115610eb957600080fd5b610ec588838901610de9565b95506020870135915080821115610edb57600080fd5b50610ee887828801610de9565b9350506040850135610ef981610e76565b9396929550929360600135925050565b60008060408385031215610f1c57600080fd5b823591506020830135610f2e81610e76565b809150509250929050565b60008060408385031215610f4c57600080fd5b8235610f5781610e76565b91506020830135610f2e81610e76565b60008060008060008060c08789031215610f8057600080fd5b8635610f8b81610e76565b95506020870135610f9b81610e76565b94506040870135935060608701359250608087013567ffffffffffffffff80821115610fc657600080fd5b610fd28a838b01610de9565b935060a0890135915080821115610fe857600080fd5b50610ff589828a01610de9565b9150509295509295509295565b60006020828403121561101457600080fd5b8135610d8981610e76565b60005b8381101561103a578181015183820152602001611022565b50506000910152565b7f570000000000000000000000000000000000000000000000000000000000000081526000825161107b81600185016020870161101f565b9190910160010192915050565b600081518084526110a081602086016020860161101f565b601f01601f19169290920160200192915050565b602081526000610d896020830184611088565b6000602082840312156110d957600080fd5b8151610d8981610e76565b6040815260006110f76040830185611088565b82810360208401526111098185611088565b95945050505050565b6060815260006111256060830186611088565b6001600160a01b039490941660208301525060400152919050565b60006020828403121561115257600080fd5b81518015158114610d8957600080fd5b6000825161117481846020870161101f565b9190910192915050565b6001600160a01b03841681528260208201526060604082015260006111096060830184611088565b6000602082840312156111b857600080fd5b5051919050565b600181811c908216806111d357607f821691505b6020821081036111f357634e487b7160e01b600052602260045260246000fd5b50919050565b601f82111561059757600081815260208120601f850160051c810160208610156112205750805b601f850160051c820191505b8181101561123f5782815560010161122c565b505050505050565b815167ffffffffffffffff81111561126157611261610dd3565b6112758161126f84546111bf565b846111f9565b602080601f8311600181146112aa57600084156112925750858301515b600019600386901b1c1916600185901b17855561123f565b600085815260208120601f198616915b828110156112d9578886015182559484019460019091019084016112ba565b50858210156112f75787850151600019600388901b60f8161c191681555b5050505050600190811b01905550565b6001600160a01b03851681528360208201528260408201526080606082015260006113356080830184611088565b9695505050505050565b7f416363657373436f6e74726f6c3a206163636f756e742000000000000000000081526000835161137781601785016020880161101f565b7f206973206d697373696e6720726f6c652000000000000000000000000000000060179184019182015283516113b481602884016020880161101f565b01602801949350505050565b634e487b7160e01b600052601160045260246000fd5b80820281158282048414176102d6576102d66113c0565b808201808211156102d6576102d66113c0565b634e487b7160e01b600052603260045260246000fd5b600081611425576114256113c0565b50600019019056fea264697066735822122040e9709b0b752a7b31cb02f8de08cd5765072aedd8e5083a7c8b492f91aaf18464736f6c63430008110033608060405234801561001057600080fd5b5061001a3361001f565b61006f565b600080546001600160a01b038381166001600160a01b0319831681178455604051919092169283917f8be0079c531659141344cd1fd0a4f28419497f9722a3daafe3b4186f6b6457e09190a35050565b61241f8061007e6000396000f3fe60806040523480156200001157600080fd5b5060043610620000b05760003560e01c8063715018a6116200007f5780638da5cb5b11620000625780638da5cb5b1462000171578063d3e2a0ca1462000183578063f2fde38b14620001ba57600080fd5b8063715018a6146200013d5780637e8816b9146200014957600080fd5b80630403185214620000b557806318c04bbb14620000df578063518f58c5146200010f578063640df6441462000126575b600080fd5b620000cc620000c6366004620007cc565b620001d1565b6040519081526020015b60405180910390f35b620000f6620000f036600462000820565b6200029c565b6040516001600160a01b039091168152602001620000d6565b620000f66200012036600462000859565b620002cf565b620000cc6200013736600462000820565b620003e3565b62000147620004a7565b005b620001606200015a366004620008c4565b620004bf565b6040519015158152602001620000d6565b6000546001600160a01b0316620000f6565b620000f66200019436600462000820565b80516020818301810180516001825292820191909301209152546001600160a01b031681565b62000147620001cb36600462000921565b6200058e565b600080620001df846200029c565b90506001600160a01b03811662000227576040516302853be960e21b815260206004820152600660248201526505745524332360d41b60448201526064015b60405180910390fd5b6040516370a0823160e01b81526001600160a01b0384811660048301528216906370a0823190602401602060405180830381865afa1580156200026e573d6000803e3d6000fd5b505050506040513d601f19601f820116820180604052508101906200029491906200093f565b949350505050565b6000600182604051620002b091906200097f565b908152604051908190036020019020546001600160a01b031692915050565b6000620002db62000624565b60006001600160a01b0316600183604051620002f891906200097f565b908152604051908190036020019020546001600160a01b0316146200034d57816040517f85bc08700000000000000000000000000000000000000000000000000000000081526004016200021e9190620009cb565b600083836040516200035f90620006dd565b6200036c929190620009e0565b604051809103906000f08015801562000389573d6000803e3d6000fd5b509050806001846040516200039f91906200097f565b90815260405190819003602001902080546001600160a01b039290921673ffffffffffffffffffffffffffffffffffffffff19909216919091179055905092915050565b600080620003f1836200029c565b90506001600160a01b03811662000435576040516302853be960e21b815260206004820152600660248201526505745524332360d41b60448201526064016200021e565b6040516370a0823160e01b81523360048201526001600160a01b038216906370a0823190602401602060405180830381865afa1580156200047a573d6000803e3d6000fd5b505050506040513d601f19601f82011682018060405250810190620004a091906200093f565b9392505050565b620004b162000624565b620004bd600062000680565b565b6000620004cb62000624565b6000620004d8856200029c565b90506001600160a01b0381166200050657846040516302853be960e21b81526004016200021e9190620009cb565b6040517f40c10f190000000000000000000000000000000000000000000000000000000081526001600160a01b038581166004830152602482018590528216906340c10f1990604401600060405180830381600087803b1580156200056a57600080fd5b505af11580156200057f573d6000803e3d6000fd5b50600198975050505050505050565b6200059862000624565b6001600160a01b038116620006165760405162461bcd60e51b815260206004820152602660248201527f4f776e61626c653a206e6577206f776e657220697320746865207a65726f206160448201527f646472657373000000000000000000000000000000000000000000000000000060648201526084016200021e565b620006218162000680565b50565b6000546001600160a01b03163314620004bd5760405162461bcd60e51b815260206004820181905260248201527f4f776e61626c653a2063616c6c6572206973206e6f7420746865206f776e657260448201526064016200021e565b600080546001600160a01b0383811673ffffffffffffffffffffffffffffffffffffffff19831681178455604051919092169283917f8be0079c531659141344cd1fd0a4f28419497f9722a3daafe3b4186f6b6457e09190a35050565b6119d78062000a1383390190565b7f4e487b7100000000000000000000000000000000000000000000000000000000600052604160045260246000fd5b600082601f8301126200072c57600080fd5b813567ffffffffffffffff808211156200074a576200074a620006eb565b604051601f8301601f19908116603f01168101908282118183101715620007755762000775620006eb565b816040528381528660208588010111156200078f57600080fd5b836020870160208301376000602085830101528094505050505092915050565b80356001600160a01b0381168114620007c757600080fd5b919050565b60008060408385031215620007e057600080fd5b823567ffffffffffffffff811115620007f857600080fd5b62000806858286016200071a565b9250506200081760208401620007af565b90509250929050565b6000602082840312156200083357600080fd5b813567ffffffffffffffff8111156200084b57600080fd5b62000294848285016200071a565b600080604083850312156200086d57600080fd5b823567ffffffffffffffff808211156200088657600080fd5b62000894868387016200071a565b93506020850135915080821115620008ab57600080fd5b50620008ba858286016200071a565b9150509250929050565b600080600060608486031215620008da57600080fd5b833567ffffffffffffffff811115620008f257600080fd5b62000900868287016200071a565b9350506200091160208501620007af565b9150604084013590509250925092565b6000602082840312156200093457600080fd5b620004a082620007af565b6000602082840312156200095257600080fd5b5051919050565b60005b83811015620009765781810151838201526020016200095c565b50506000910152565b600082516200099381846020870162000959565b9190910192915050565b60008151808452620009b781602086016020860162000959565b601f01601f19169290920160200192915050565b602081526000620004a060208301846200099d565b604081526000620009f560408301856200099d565b828103602084015262000a0981856200099d565b9594505050505056fe6101406040523480156200001257600080fd5b50604051620019d7380380620019d7833981016040819052620000359162000243565b6040805180820190915260018152603160f81b602082015281908190848260036200006183826200033c565b5060046200007082826200033c565b5050506200008d620000876200012860201b60201c565b6200012c565b815160208084019190912082518383012060e08290526101008190524660a0818152604080517f8b73c3c69bb8fe3d512ecc4cf759cc79239f7b179b0ffacaa9a75d522b39400f81880181905281830187905260608201869052608082019490945230818401528151808203909301835260c00190528051940193909320919290916080523060c05261012052506200040895505050505050565b3390565b600580546001600160a01b038381166001600160a01b0319831681179093556040519116919082907f8be0079c531659141344cd1fd0a4f28419497f9722a3daafe3b4186f6b6457e090600090a35050565b634e487b7160e01b600052604160045260246000fd5b600082601f830112620001a657600080fd5b81516001600160401b0380821115620001c357620001c36200017e565b604051601f8301601f19908116603f01168101908282118183101715620001ee57620001ee6200017e565b816040528381526020925086838588010111156200020b57600080fd5b600091505b838210156200022f578582018301518183018401529082019062000210565b600093810190920192909252949350505050565b600080604083850312156200025757600080fd5b82516001600160401b03808211156200026f57600080fd5b6200027d8683870162000194565b935060208501519150808211156200029457600080fd5b50620002a38582860162000194565b9150509250929050565b600181811c90821680620002c257607f821691505b602082108103620002e357634e487b7160e01b600052602260045260246000fd5b50919050565b601f8211156200033757600081815260208120601f850160051c81016020861015620003125750805b601f850160051c820191505b8181101562000333578281556001016200031e565b5050505b505050565b81516001600160401b038111156200035857620003586200017e565b6200037081620003698454620002ad565b84620002e9565b602080601f831160018114620003a857600084156200038f5750858301515b600019600386901b1c1916600185901b17855562000333565b600085815260208120601f198616915b82811015620003d957888601518255948401946001909101908401620003b8565b5085821015620003f85787850151600019600388901b60f8161c191681555b5050505050600190811b01905550565b60805160a05160c05160e051610100516101205161157f620004586000396000610bf901526000610c4801526000610c2301526000610b7c01526000610ba601526000610bd0015261157f6000f3fe608060405234801561001057600080fd5b506004361061016c5760003560e01c8063715018a6116100cd578063a457c2d711610081578063d505accf11610066578063d505accf146102c9578063dd62ed3e146102dc578063f2fde38b1461031557600080fd5b8063a457c2d7146102a3578063a9059cbb146102b657600080fd5b80637ecebe00116100b25780637ecebe001461026d5780638da5cb5b1461028057806395d89b411461029b57600080fd5b8063715018a61461025257806379cc67901461025a57600080fd5b80633644e5151161012457806340c10f191161010957806340c10f191461020157806342966c681461021657806370a082311461022957600080fd5b80633644e515146101e657806339509351146101ee57600080fd5b806318160ddd1161015557806318160ddd146101b257806323b872dd146101c4578063313ce567146101d757600080fd5b806306fdde0314610171578063095ea7b31461018f575b600080fd5b610179610328565b6040516101869190611312565b60405180910390f35b6101a261019d36600461137c565b6103ba565b6040519015158152602001610186565b6002545b604051908152602001610186565b6101a26101d23660046113a6565b6103d4565b60405160128152602001610186565b6101b66103f8565b6101a26101fc36600461137c565b610407565b61021461020f36600461137c565b610446565b005b6102146102243660046113e2565b61045c565b6101b66102373660046113fb565b6001600160a01b031660009081526020819052604090205490565b610214610469565b61021461026836600461137c565b61047d565b6101b661027b3660046113fb565b610492565b6005546040516001600160a01b039091168152602001610186565b6101796104b0565b6101a26102b136600461137c565b6104bf565b6101a26102c436600461137c565b61056e565b6102146102d736600461141d565b61057c565b6101b66102ea366004611490565b6001600160a01b03918216600090815260016020908152604080832093909416825291909152205490565b6102146103233660046113fb565b6106e0565b606060038054610337906114c3565b80601f0160208091040260200160405190810160405280929190818152602001828054610363906114c3565b80156103b05780601f10610385576101008083540402835291602001916103b0565b820191906000526020600020905b81548152906001019060200180831161039357829003601f168201915b5050505050905090565b6000336103c881858561076d565b60019150505b92915050565b6000336103e28582856108c6565b6103ed858585610958565b506001949350505050565b6000610402610b6f565b905090565b3360008181526001602090815260408083206001600160a01b03871684529091528120549091906103c8908290869061044190879061150d565b61076d565b61044e610c96565b6104588282610cf0565b5050565b6104663382610dcf565b50565b610471610c96565b61047b6000610f4c565b565b6104888233836108c6565b6104588282610dcf565b6001600160a01b0381166000908152600660205260408120546103ce565b606060048054610337906114c3565b3360008181526001602090815260408083206001600160a01b0387168452909152812054909190838110156105615760405162461bcd60e51b815260206004820152602560248201527f45524332303a2064656372656173656420616c6c6f77616e63652062656c6f7760448201527f207a65726f00000000000000000000000000000000000000000000000000000060648201526084015b60405180910390fd5b6103ed828686840361076d565b6000336103c8818585610958565b834211156105cc5760405162461bcd60e51b815260206004820152601d60248201527f45524332305065726d69743a206578706972656420646561646c696e650000006044820152606401610558565b60007f6e71edae12b1b97f4d1f60370fef10105fa2faae0126114a169c64845d6126c98888886105fb8c610fb6565b6040805160208101969096526001600160a01b0394851690860152929091166060840152608083015260a082015260c0810186905260e001604051602081830303815290604052805190602001209050600061065682610fde565b9050600061066682878787611047565b9050896001600160a01b0316816001600160a01b0316146106c95760405162461bcd60e51b815260206004820152601e60248201527f45524332305065726d69743a20696e76616c6964207369676e617475726500006044820152606401610558565b6106d48a8a8a61076d565b50505050505050505050565b6106e8610c96565b6001600160a01b0381166107645760405162461bcd60e51b815260206004820152602660248201527f4f776e61626c653a206e6577206f776e657220697320746865207a65726f206160448201527f64647265737300000000000000000000000000000000000000000000000000006064820152608401610558565b61046681610f4c565b6001600160a01b0383166107e85760405162461bcd60e51b8152602060048201526024808201527f45524332303a20617070726f76652066726f6d20746865207a65726f2061646460448201527f72657373000000000000000000000000000000000000000000000000000000006064820152608401610558565b6001600160a01b0382166108645760405162461bcd60e51b815260206004820152602260248201527f45524332303a20617070726f766520746f20746865207a65726f20616464726560448201527f73730000000000000000000000000000000000000000000000000000000000006064820152608401610558565b6001600160a01b0383811660008181526001602090815260408083209487168084529482529182902085905590518481527f8c5be1e5ebec7d5bd14f71427d1e84f3dd0314c0f7b2291e5b200ac8c7c3b92591015b60405180910390a3505050565b6001600160a01b03838116600090815260016020908152604080832093861683529290522054600019811461095257818110156109455760405162461bcd60e51b815260206004820152601d60248201527f45524332303a20696e73756666696369656e7420616c6c6f77616e63650000006044820152606401610558565b610952848484840361076d565b50505050565b6001600160a01b0383166109d45760405162461bcd60e51b815260206004820152602560248201527f45524332303a207472616e736665722066726f6d20746865207a65726f20616460448201527f64726573730000000000000000000000000000000000000000000000000000006064820152608401610558565b6001600160a01b038216610a505760405162461bcd60e51b815260206004820152602360248201527f45524332303a207472616e7366657220746f20746865207a65726f206164647260448201527f65737300000000000000000000000000000000000000000000000000000000006064820152608401610558565b6001600160a01b03831660009081526020819052604090205481811015610adf5760405162461bcd60e51b815260206004820152602660248201527f45524332303a207472616e7366657220616d6f756e742065786365656473206260448201527f616c616e636500000000000000000000000000000000000000000000000000006064820152608401610558565b6001600160a01b03808516600090815260208190526040808220858503905591851681529081208054849290610b1690849061150d565b92505081905550826001600160a01b0316846001600160a01b03167fddf252ad1be2c89b69c2b068fc378daa952ba7f163c4a11628f55a4df523b3ef84604051610b6291815260200190565b60405180910390a3610952565b6000306001600160a01b037f000000000000000000000000000000000000000000000000000000000000000016148015610bc857507f000000000000000000000000000000000000000000000000000000000000000046145b15610bf257507f000000000000000000000000000000000000000000000000000000000000000090565b50604080517f00000000000000000000000000000000000000000000000000000000000000006020808301919091527f0000000000000000000000000000000000000000000000000000000000000000828401527f000000000000000000000000000000000000000000000000000000000000000060608301524660808301523060a0808401919091528351808403909101815260c0909201909252805191012090565b6005546001600160a01b0316331461047b5760405162461bcd60e51b815260206004820181905260248201527f4f776e61626c653a2063616c6c6572206973206e6f7420746865206f776e65726044820152606401610558565b6001600160a01b038216610d465760405162461bcd60e51b815260206004820152601f60248201527f45524332303a206d696e7420746f20746865207a65726f2061646472657373006044820152606401610558565b8060026000828254610d58919061150d565b90915550506001600160a01b03821660009081526020819052604081208054839290610d8590849061150d565b90915550506040518181526001600160a01b038316906000907fddf252ad1be2c89b69c2b068fc378daa952ba7f163c4a11628f55a4df523b3ef9060200160405180910390a35050565b6001600160a01b038216610e4b5760405162461bcd60e51b815260206004820152602160248201527f45524332303a206275726e2066726f6d20746865207a65726f2061646472657360448201527f73000000000000000000000000000000000000000000000000000000000000006064820152608401610558565b6001600160a01b03821660009081526020819052604090205481811015610eda5760405162461bcd60e51b815260206004820152602260248201527f45524332303a206275726e20616d6f756e7420657863656564732062616c616e60448201527f63650000000000000000000000000000000000000000000000000000000000006064820152608401610558565b6001600160a01b0383166000908152602081905260408120838303905560028054849290610f09908490611520565b90915550506040518281526000906001600160a01b038516907fddf252ad1be2c89b69c2b068fc378daa952ba7f163c4a11628f55a4df523b3ef906020016108b9565b600580546001600160a01b038381167fffffffffffffffffffffffff0000000000000000000000000000000000000000831681179093556040519116919082907f8be0079c531659141344cd1fd0a4f28419497f9722a3daafe3b4186f6b6457e090600090a35050565b6001600160a01b03811660009081526006602052604090208054600181018255905b50919050565b60006103ce610feb610b6f565b836040517f19010000000000000000000000000000000000000000000000000000000000006020820152602281018390526042810182905260009060620160405160208183030381529060405280519060200120905092915050565b60008060006110588787878761106f565b915091506110658161115c565b5095945050505050565b6000807f7fffffffffffffffffffffffffffffff5d576e7357a4501ddfe92f46681b20a08311156110a65750600090506003611153565b8460ff16601b141580156110be57508460ff16601c14155b156110cf5750600090506004611153565b6040805160008082526020820180845289905260ff881692820192909252606081018690526080810185905260019060a0016020604051602081039080840390855afa158015611123573d6000803e3d6000fd5b5050604051601f1901519150506001600160a01b03811661114c57600060019250925050611153565b9150600090505b94509492505050565b600081600481111561117057611170611533565b036111785750565b600181600481111561118c5761118c611533565b036111d95760405162461bcd60e51b815260206004820152601860248201527f45434453413a20696e76616c6964207369676e617475726500000000000000006044820152606401610558565b60028160048111156111ed576111ed611533565b0361123a5760405162461bcd60e51b815260206004820152601f60248201527f45434453413a20696e76616c6964207369676e6174757265206c656e677468006044820152606401610558565b600381600481111561124e5761124e611533565b036112a65760405162461bcd60e51b815260206004820152602260248201527f45434453413a20696e76616c6964207369676e6174757265202773272076616c604482015261756560f01b6064820152608401610558565b60048160048111156112ba576112ba611533565b036104665760405162461bcd60e51b815260206004820152602260248201527f45434453413a20696e76616c6964207369676e6174757265202776272076616c604482015261756560f01b6064820152608401610558565b600060208083528351808285015260005b8181101561133f57858101830151858201604001528201611323565b506000604082860101526040601f19601f8301168501019250505092915050565b80356001600160a01b038116811461137757600080fd5b919050565b6000806040838503121561138f57600080fd5b61139883611360565b946020939093013593505050565b6000806000606084860312156113bb57600080fd5b6113c484611360565b92506113d260208501611360565b9150604084013590509250925092565b6000602082840312156113f457600080fd5b5035919050565b60006020828403121561140d57600080fd5b61141682611360565b9392505050565b600080600080600080600060e0888a03121561143857600080fd5b61144188611360565b965061144f60208901611360565b95506040880135945060608801359350608088013560ff8116811461147357600080fd5b9699959850939692959460a0840135945060c09093013592915050565b600080604083850312156114a357600080fd5b6114ac83611360565b91506114ba60208401611360565b90509250929050565b600181811c908216806114d757607f821691505b602082108103610fd857634e487b7160e01b600052602260045260246000fd5b634e487b7160e01b600052601160045260246000fd5b808201808211156103ce576103ce6114f7565b818103818111156103ce576103ce6114f7565b634e487b7160e01b600052602160045260246000fdfea2646970667358221220ecb8625c97a24e370a1d2049a9261a0cd8d6c448352fb8bdce6658580e5c4cf464736f6c63430008110033a2646970667358221220d65b62da1e2e4557725e6b27c0efbb89f4852a150eb7e2ce789b2c959b575a3564736f6c63430008110033",
  "linkReferences": {},
  "deployedLinkReferences": {}
}